{
  "address": "0xe7f1725E7734CE288F8367e1Bb143E90bb3F0512",
  "abi": [
    {
      "inputs": [
        {
          "internalType": "address",
          "name": "_admin",
          "type": "address"
        },
        {
          "internalType": "contract Scuderia",
          "name": "_scuderia",
          "type": "address"
        }
      ],
      "stateMutability": "nonpayable",
      "type": "constructor"
    },
    {
      "inputs": [],
      "name": "ClaimingZeroReward",
      "type": "error"
    },
    {
      "inputs": [],
      "name": "InvalidRoleForAction",
      "type": "error"
    },
    {
      "anonymous": false,
      "inputs": [
        {
          "indexed": true,
          "internalType": "address",
          "name": "owner",
          "type": "address"
        },
        {
          "indexed": true,
          "internalType": "address",
          "name": "spender",
          "type": "address"
        },
        {
          "indexed": false,
          "internalType": "uint256",
          "name": "value",
          "type": "uint256"
        }
      ],
      "name": "Approval",
      "type": "event"
    },
    {
      "anonymous": false,
      "inputs": [
        {
          "indexed": true,
          "internalType": "bytes32",
          "name": "role",
          "type": "bytes32"
        },
        {
          "indexed": true,
          "internalType": "bytes32",
          "name": "previousAdminRole",
          "type": "bytes32"
        },
        {
          "indexed": true,
          "internalType": "bytes32",
          "name": "newAdminRole",
          "type": "bytes32"
        }
      ],
      "name": "RoleAdminChanged",
      "type": "event"
    },
    {
      "anonymous": false,
      "inputs": [
        {
          "indexed": true,
          "internalType": "bytes32",
          "name": "role",
          "type": "bytes32"
        },
        {
          "indexed": true,
          "internalType": "address",
          "name": "account",
          "type": "address"
        },
        {
          "indexed": true,
          "internalType": "address",
          "name": "sender",
          "type": "address"
        }
      ],
      "name": "RoleGranted",
      "type": "event"
    },
    {
      "anonymous": false,
      "inputs": [
        {
          "indexed": true,
          "internalType": "bytes32",
          "name": "role",
          "type": "bytes32"
        },
        {
          "indexed": true,
          "internalType": "address",
          "name": "account",
          "type": "address"
        },
        {
          "indexed": true,
          "internalType": "address",
          "name": "sender",
          "type": "address"
        }
      ],
      "name": "RoleRevoked",
      "type": "event"
    },
    {
      "anonymous": false,
      "inputs": [
        {
          "indexed": true,
          "internalType": "address",
          "name": "from",
          "type": "address"
        },
        {
          "indexed": true,
          "internalType": "address",
          "name": "to",
          "type": "address"
        },
        {
          "indexed": false,
          "internalType": "uint256",
          "name": "value",
          "type": "uint256"
        }
      ],
      "name": "Transfer",
      "type": "event"
    },
    {
      "inputs": [],
      "name": "BURNER_ROLE",
      "outputs": [
        {
          "internalType": "bytes32",
          "name": "",
          "type": "bytes32"
        }
      ],
      "stateMutability": "view",
      "type": "function"
    },
    {
      "inputs": [],
      "name": "DAILY_REWARD",
      "outputs": [
        {
          "internalType": "uint256",
          "name": "",
          "type": "uint256"
        }
      ],
      "stateMutability": "view",
      "type": "function"
    },
    {
      "inputs": [],
      "name": "DEFAULT_ADMIN_ROLE",
      "outputs": [
        {
          "internalType": "bytes32",
          "name": "",
          "type": "bytes32"
        }
      ],
      "stateMutability": "view",
      "type": "function"
    },
    {
      "inputs": [],
      "name": "GRANTER_ROLE",
      "outputs": [
        {
          "internalType": "bytes32",
          "name": "",
          "type": "bytes32"
        }
      ],
      "stateMutability": "view",
      "type": "function"
    },
    {
      "inputs": [
        {
          "internalType": "address",
          "name": "owner",
          "type": "address"
        },
        {
          "internalType": "address",
          "name": "spender",
          "type": "address"
        }
      ],
      "name": "allowance",
      "outputs": [
        {
          "internalType": "uint256",
          "name": "",
          "type": "uint256"
        }
      ],
      "stateMutability": "view",
      "type": "function"
    },
    {
      "inputs": [
        {
          "internalType": "address",
          "name": "spender",
          "type": "address"
        },
        {
          "internalType": "uint256",
          "name": "amount",
          "type": "uint256"
        }
      ],
      "name": "approve",
      "outputs": [
        {
          "internalType": "bool",
          "name": "",
          "type": "bool"
        }
      ],
      "stateMutability": "nonpayable",
      "type": "function"
    },
    {
      "inputs": [
        {
          "internalType": "address",
          "name": "account",
          "type": "address"
        }
      ],
      "name": "balanceOf",
      "outputs": [
        {
          "internalType": "uint256",
          "name": "",
          "type": "uint256"
        }
      ],
      "stateMutability": "view",
      "type": "function"
    },
    {
      "inputs": [
        {
          "internalType": "address",
          "name": "_recipient",
          "type": "address"
        },
        {
          "internalType": "uint256",
          "name": "_amount",
          "type": "uint256"
        }
      ],
      "name": "burnToken",
      "outputs": [],
      "stateMutability": "nonpayable",
      "type": "function"
    },
    {
      "inputs": [],
      "name": "claimToken",
      "outputs": [],
      "stateMutability": "nonpayable",
      "type": "function"
    },
    {
      "inputs": [],
      "name": "decimals",
      "outputs": [
        {
          "internalType": "uint8",
          "name": "",
          "type": "uint8"
        }
      ],
      "stateMutability": "view",
      "type": "function"
    },
    {
      "inputs": [
        {
          "internalType": "address",
          "name": "spender",
          "type": "address"
        },
        {
          "internalType": "uint256",
          "name": "subtractedValue",
          "type": "uint256"
        }
      ],
      "name": "decreaseAllowance",
      "outputs": [
        {
          "internalType": "bool",
          "name": "",
          "type": "bool"
        }
      ],
      "stateMutability": "nonpayable",
      "type": "function"
    },
    {
      "inputs": [
        {
          "internalType": "bytes32",
          "name": "role",
          "type": "bytes32"
        }
      ],
      "name": "getRoleAdmin",
      "outputs": [
        {
          "internalType": "bytes32",
          "name": "",
          "type": "bytes32"
        }
      ],
      "stateMutability": "view",
      "type": "function"
    },
    {
      "inputs": [
        {
          "internalType": "bytes32",
          "name": "role",
          "type": "bytes32"
        },
        {
          "internalType": "address",
          "name": "account",
          "type": "address"
        }
      ],
      "name": "grantRole",
      "outputs": [],
      "stateMutability": "nonpayable",
      "type": "function"
    },
    {
      "inputs": [
        {
          "internalType": "address",
          "name": "_recipient",
          "type": "address"
        },
        {
          "internalType": "uint256",
          "name": "_amount",
          "type": "uint256"
        }
      ],
      "name": "grantToken",
      "outputs": [],
      "stateMutability": "nonpayable",
      "type": "function"
    },
    {
      "inputs": [
        {
          "internalType": "bytes32",
          "name": "role",
          "type": "bytes32"
        },
        {
          "internalType": "address",
          "name": "account",
          "type": "address"
        }
      ],
      "name": "hasRole",
      "outputs": [
        {
          "internalType": "bool",
          "name": "",
          "type": "bool"
        }
      ],
      "stateMutability": "view",
      "type": "function"
    },
    {
      "inputs": [
        {
          "internalType": "address",
          "name": "spender",
          "type": "address"
        },
        {
          "internalType": "uint256",
          "name": "addedValue",
          "type": "uint256"
        }
      ],
      "name": "increaseAllowance",
      "outputs": [
        {
          "internalType": "bool",
          "name": "",
          "type": "bool"
        }
      ],
      "stateMutability": "nonpayable",
      "type": "function"
    },
    {
      "inputs": [],
      "name": "name",
      "outputs": [
        {
          "internalType": "string",
          "name": "",
          "type": "string"
        }
      ],
      "stateMutability": "view",
      "type": "function"
    },
    {
      "inputs": [
        {
          "internalType": "bytes32",
          "name": "role",
          "type": "bytes32"
        },
        {
          "internalType": "address",
          "name": "account",
          "type": "address"
        }
      ],
      "name": "renounceRole",
      "outputs": [],
      "stateMutability": "nonpayable",
      "type": "function"
    },
    {
      "inputs": [
        {
          "internalType": "bytes32",
          "name": "role",
          "type": "bytes32"
        },
        {
          "internalType": "address",
          "name": "account",
          "type": "address"
        }
      ],
      "name": "revokeRole",
      "outputs": [],
      "stateMutability": "nonpayable",
      "type": "function"
    },
    {
      "inputs": [
        {
          "internalType": "bytes4",
          "name": "interfaceId",
          "type": "bytes4"
        }
      ],
      "name": "supportsInterface",
      "outputs": [
        {
          "internalType": "bool",
          "name": "",
          "type": "bool"
        }
      ],
      "stateMutability": "view",
      "type": "function"
    },
    {
      "inputs": [],
      "name": "symbol",
      "outputs": [
        {
          "internalType": "string",
          "name": "",
          "type": "string"
        }
      ],
      "stateMutability": "view",
      "type": "function"
    },
    {
      "inputs": [],
      "name": "totalSupply",
      "outputs": [
        {
          "internalType": "uint256",
          "name": "",
          "type": "uint256"
        }
      ],
      "stateMutability": "view",
      "type": "function"
    },
    {
      "inputs": [
        {
          "internalType": "address",
          "name": "to",
          "type": "address"
        },
        {
          "internalType": "uint256",
          "name": "amount",
          "type": "uint256"
        }
      ],
      "name": "transfer",
      "outputs": [
        {
          "internalType": "bool",
          "name": "",
          "type": "bool"
        }
      ],
      "stateMutability": "nonpayable",
      "type": "function"
    },
    {
      "inputs": [
        {
          "internalType": "address",
          "name": "from",
          "type": "address"
        },
        {
          "internalType": "address",
          "name": "to",
          "type": "address"
        },
        {
          "internalType": "uint256",
          "name": "amount",
          "type": "uint256"
        }
      ],
      "name": "transferFrom",
      "outputs": [
        {
          "internalType": "bool",
          "name": "",
          "type": "bool"
        }
      ],
      "stateMutability": "nonpayable",
      "type": "function"
    },
    {
      "inputs": [
        {
          "internalType": "address",
          "name": "_account",
          "type": "address"
        }
      ],
      "name": "unclaimedBalanceOf",
      "outputs": [
        {
          "internalType": "uint256",
          "name": "",
          "type": "uint256"
        }
      ],
      "stateMutability": "view",
      "type": "function"
    },
    {
      "inputs": [
        {
          "internalType": "address",
          "name": "_receiver",
          "type": "address"
        }
      ],
      "name": "updateReward",
      "outputs": [],
      "stateMutability": "nonpayable",
      "type": "function"
    },
    {
      "inputs": [
        {
          "internalType": "address",
          "name": "_sender",
          "type": "address"
        },
        {
          "internalType": "address",
          "name": "_receiver",
          "type": "address"
        }
      ],
      "name": "updateReward",
      "outputs": [],
      "stateMutability": "nonpayable",
      "type": "function"
    }
  ],
  "transactionHash": "0x9fbb61f2133920a8ee8373bf071f18830cccb4fdd0e7439885468be146afca3f",
  "args": [
    "0xf39Fd6e51aad88F6F4ce6aB8827279cffFb92266",
    "0x5FbDB2315678afecb367f032d93F642f64180aa3"
  ],
  "numDeployments": 1,
  "solcInputHash": "dbbccaefc5fe8adb4d66545d0906bd37",
  "bytecode": "0x60a06040523480156200001157600080fd5b5060405162001a2538038062001a25833981016040819052620000349162000180565b6040518060400160405280600581526020016414d8dbdbdd60da1b8152506040518060400160405280600381526020016214d0d560ea1b81525081600390816200007f919062000264565b5060046200008e828262000264565b50620000a091506000905083620000b3565b6001600160a01b03166080525062000330565b620000bf8282620000c3565b5050565b60008281526005602090815260408083206001600160a01b038516845290915290205460ff16620000bf5760008281526005602090815260408083206001600160a01b03851684529091529020805460ff19166001179055620001233390565b6001600160a01b0316816001600160a01b0316837f2f8788117e7eff1d82e926ec794901d17c78024a50270940304540a733656f0d60405160405180910390a45050565b6001600160a01b03811681146200017d57600080fd5b50565b600080604083850312156200019457600080fd5b8251620001a18162000167565b6020840151909250620001b48162000167565b809150509250929050565b634e487b7160e01b600052604160045260246000fd5b600181811c90821680620001ea57607f821691505b6020821081036200020b57634e487b7160e01b600052602260045260246000fd5b50919050565b601f8211156200025f57600081815260208120601f850160051c810160208610156200023a5750805b601f850160051c820191505b818110156200025b5782815560010162000246565b5050505b505050565b81516001600160401b03811115620002805762000280620001bf565b6200029881620002918454620001d5565b8462000211565b602080601f831160018114620002d05760008415620002b75750858301515b600019600386901b1c1916600185901b1785556200025b565b600085815260208120601f198616915b828110156200030157888601518255948401946001909101908401620002e0565b5085821015620003205787850151600019600388901b60f8161c191681555b5050505050600190811b01905550565b6080516116d96200034c6000396000610b0b01526116d96000f3fe608060405234801561001057600080fd5b50600436106101b95760003560e01c8063632447c9116100f9578063cf5800ba11610097578063d547741f11610071578063d547741f146103c2578063dd62ed3e146103d5578063f8fb886f1461040e578063f94c0a111461042157600080fd5b8063cf5800ba1461038d578063d1df306c1461039c578063d230af3a146103af57600080fd5b806395d89b41116100d357806395d89b4114610357578063a217fddf1461035f578063a457c2d714610367578063a9059cbb1461037a57600080fd5b8063632447c9146102e257806370a08231146102f557806391d148541461031e57600080fd5b8063248a9ca311610166578063313ce56711610140578063313ce567146102a557806336568abe146102b457806339509351146102c75780634451d89f146102da57600080fd5b8063248a9ca314610246578063282c51f3146102695780632f2ff15d1461029057600080fd5b806318160ddd1161019757806318160ddd1461020e57806318c0484a1461022057806323b872dd1461023357600080fd5b806301ffc9a7146101be57806306fdde03146101e6578063095ea7b3146101fb575b600080fd5b6101d16101cc366004611382565b610448565b60405190151581526020015b60405180910390f35b6101ee61047f565b6040516101dd91906113d0565b6101d161020936600461141f565b610511565b6002545b6040519081526020016101dd565b61021261022e366004611449565b610529565b6101d1610241366004611464565b610555565b6102126102543660046114a0565b60009081526005602052604090206001015490565b6102127f3c11d16cbaffd01df69ce1c404f6340ee057498f5f00246190ea54220576a84881565b6102a361029e3660046114b9565b610579565b005b604051601281526020016101dd565b6102a36102c23660046114b9565b6105a3565b6101d16102d536600461141f565b610634565b6102a3610673565b6102a36102f0366004611449565b6106e7565b610212610303366004611449565b6001600160a01b031660009081526020819052604090205490565b6101d161032c3660046114b9565b60009182526005602090815260408084206001600160a01b0393909316845291905290205460ff1690565b6101ee61073d565b610212600081565b6101d161037536600461141f565b61074c565b6101d161038836600461141f565b6107de565b610212678ac7230489e8000081565b6102a36103aa36600461141f565b6107ec565b6102a36103bd3660046114e5565b610845565b6102a36103d03660046114b9565b6108f1565b6102126103e33660046114e5565b6001600160a01b03918216600090815260016020908152604080832093909416825291909152205490565b6102a361041c36600461141f565b610916565b6102127f2dee5dd865e09c7ce6788d674a03682994f0b44339403ca07ac129a9de4bed6a81565b60006001600160e01b03198216637965db0b60e01b148061047957506301ffc9a760e01b6001600160e01b03198316145b92915050565b60606003805461048e9061150f565b80601f01602080910402602001604051908101604052809291908181526020018280546104ba9061150f565b80156105075780601f106104dc57610100808354040283529160200191610507565b820191906000526020600020905b8154815290600101906020018083116104ea57829003601f168201915b5050505050905090565b60003361051f81858561096f565b5060019392505050565b6001600160a01b03811660009081526007602052604081205461054b83610a93565b610479919061155f565b600033610563858285610b96565b61056e858585610c28565b506001949350505050565b60008281526005602052604090206001015461059481610df6565b61059e8383610e00565b505050565b6001600160a01b03811633146106265760405162461bcd60e51b815260206004820152602f60248201527f416363657373436f6e74726f6c3a2063616e206f6e6c792072656e6f756e636560448201527f20726f6c657320666f722073656c66000000000000000000000000000000000060648201526084015b60405180910390fd5b6106308282610ea2565b5050565b3360008181526001602090815260408083206001600160a01b038716845290915281205490919061051f908290869061066e90879061155f565b61096f565b33600081815260076020526040812054909161068e90610a93565b610698919061155f565b9050806000036106bb5760405163202fc71f60e11b815260040160405180910390fd5b336000818152600760209081526040808320839055600690915290204290556106e49082610f25565b50565b6106f081610a93565b6001600160a01b038216600090815260076020526040902054610713919061155f565b6001600160a01b039091166000908152600760209081526040808320939093556006905220429055565b60606004805461048e9061150f565b3360008181526001602090815260408083206001600160a01b0387168452909152812054909190838110156107d15760405162461bcd60e51b815260206004820152602560248201527f45524332303a2064656372656173656420616c6c6f77616e63652062656c6f77604482015264207a65726f60d81b606482015260840161061d565b61056e828686840361096f565b60003361051f818585610c28565b3360009081527f847f481f687befb06ed3511f1a8dcef57e83007c0147ae5047583d7056170937602052604090205460ff1661083b57604051630203c62360e41b815260040160405180910390fd5b6106308282611004565b61084e82610a93565b6001600160a01b038316600090815260076020526040902054610871919061155f565b6001600160a01b03831660009081526007602052604090205561089381610a93565b6001600160a01b0382166000908152600760205260409020546108b6919061155f565b6001600160a01b0391821660008181526007602090815260408083209490945594909316835260069093528082204290819055928252902055565b60008281526005602052604090206001015461090c81610df6565b61059e8383610ea2565b3360009081527f56003444d7afce511db07f995a7056ca37babef84679b893cfa59fdf34f1643a602052604090205460ff1661096557604051630203c62360e41b815260040160405180910390fd5b6106308282610f25565b6001600160a01b0383166109d15760405162461bcd60e51b8152602060048201526024808201527f45524332303a20617070726f76652066726f6d20746865207a65726f206164646044820152637265737360e01b606482015260840161061d565b6001600160a01b038216610a325760405162461bcd60e51b815260206004820152602260248201527f45524332303a20617070726f766520746f20746865207a65726f206164647265604482015261737360f01b606482015260840161061d565b6001600160a01b0383811660008181526001602090815260408083209487168084529482529182902085905590518481527f8c5be1e5ebec7d5bd14f71427d1e84f3dd0314c0f7b2291e5b200ac8c7c3b925910160405180910390a3505050565b6001600160a01b0381166000908152600660205260408120548103610aba57506000919050565b6001600160a01b0382166000908152600660205260409020546201518090610ae29042611572565b6040516370a0823160e01b81526001600160a01b038581166004830152678ac7230489e80000917f0000000000000000000000000000000000000000000000000000000000000000909116906370a0823190602401602060405180830381865afa158015610b54573d6000803e3d6000fd5b505050506040513d601f19601f82011682018060405250810190610b789190611585565b610b82919061159e565b610b8c919061159e565b61047991906115bd565b6001600160a01b038381166000908152600160209081526040808320938616835292905220546000198114610c225781811015610c155760405162461bcd60e51b815260206004820152601d60248201527f45524332303a20696e73756666696369656e7420616c6c6f77616e6365000000604482015260640161061d565b610c22848484840361096f565b50505050565b6001600160a01b038316610c8c5760405162461bcd60e51b815260206004820152602560248201527f45524332303a207472616e736665722066726f6d20746865207a65726f206164604482015264647265737360d81b606482015260840161061d565b6001600160a01b038216610cee5760405162461bcd60e51b815260206004820152602360248201527f45524332303a207472616e7366657220746f20746865207a65726f206164647260448201526265737360e81b606482015260840161061d565b6001600160a01b03831660009081526020819052604090205481811015610d665760405162461bcd60e51b815260206004820152602660248201527f45524332303a207472616e7366657220616d6f756e7420657863656564732062604482015265616c616e636560d01b606482015260840161061d565b6001600160a01b03808516600090815260208190526040808220858503905591851681529081208054849290610d9d90849061155f565b92505081905550826001600160a01b0316846001600160a01b03167fddf252ad1be2c89b69c2b068fc378daa952ba7f163c4a11628f55a4df523b3ef84604051610de991815260200190565b60405180910390a3610c22565b6106e48133611152565b60008281526005602090815260408083206001600160a01b038516845290915290205460ff166106305760008281526005602090815260408083206001600160a01b03851684529091529020805460ff19166001179055610e5e3390565b6001600160a01b0316816001600160a01b0316837f2f8788117e7eff1d82e926ec794901d17c78024a50270940304540a733656f0d60405160405180910390a45050565b60008281526005602090815260408083206001600160a01b038516845290915290205460ff16156106305760008281526005602090815260408083206001600160a01b0385168085529252808320805460ff1916905551339285917ff6391f5c32d9c69d2a47ea670b442974b53935d1edc7fd64eb21e047a839171b9190a45050565b6001600160a01b038216610f7b5760405162461bcd60e51b815260206004820152601f60248201527f45524332303a206d696e7420746f20746865207a65726f206164647265737300604482015260640161061d565b8060026000828254610f8d919061155f565b90915550506001600160a01b03821660009081526020819052604081208054839290610fba90849061155f565b90915550506040518181526001600160a01b038316906000907fddf252ad1be2c89b69c2b068fc378daa952ba7f163c4a11628f55a4df523b3ef9060200160405180910390a35050565b6001600160a01b0382166110645760405162461bcd60e51b815260206004820152602160248201527f45524332303a206275726e2066726f6d20746865207a65726f206164647265736044820152607360f81b606482015260840161061d565b6001600160a01b038216600090815260208190526040902054818110156110d85760405162461bcd60e51b815260206004820152602260248201527f45524332303a206275726e20616d6f756e7420657863656564732062616c616e604482015261636560f01b606482015260840161061d565b6001600160a01b0383166000908152602081905260408120838303905560028054849290611107908490611572565b90915550506040518281526000906001600160a01b038516907fddf252ad1be2c89b69c2b068fc378daa952ba7f163c4a11628f55a4df523b3ef9060200160405180910390a3505050565b60008281526005602090815260408083206001600160a01b038516845290915290205460ff1661063057611190816001600160a01b031660146111d2565b61119b8360206111d2565b6040516020016111ac9291906115df565b60408051601f198184030181529082905262461bcd60e51b825261061d916004016113d0565b606060006111e183600261159e565b6111ec90600261155f565b67ffffffffffffffff81111561120457611204611660565b6040519080825280601f01601f19166020018201604052801561122e576020820181803683370190505b509050600360fc1b8160008151811061124957611249611676565b60200101906001600160f81b031916908160001a905350600f60fb1b8160018151811061127857611278611676565b60200101906001600160f81b031916908160001a905350600061129c84600261159e565b6112a790600161155f565b90505b600181111561132c577f303132333435363738396162636465660000000000000000000000000000000085600f16601081106112e8576112e8611676565b1a60f81b8282815181106112fe576112fe611676565b60200101906001600160f81b031916908160001a90535060049490941c936113258161168c565b90506112aa565b50831561137b5760405162461bcd60e51b815260206004820181905260248201527f537472696e67733a20686578206c656e67746820696e73756666696369656e74604482015260640161061d565b9392505050565b60006020828403121561139457600080fd5b81356001600160e01b03198116811461137b57600080fd5b60005b838110156113c75781810151838201526020016113af565b50506000910152565b60208152600082518060208401526113ef8160408501602087016113ac565b601f01601f19169190910160400192915050565b80356001600160a01b038116811461141a57600080fd5b919050565b6000806040838503121561143257600080fd5b61143b83611403565b946020939093013593505050565b60006020828403121561145b57600080fd5b61137b82611403565b60008060006060848603121561147957600080fd5b61148284611403565b925061149060208501611403565b9150604084013590509250925092565b6000602082840312156114b257600080fd5b5035919050565b600080604083850312156114cc57600080fd5b823591506114dc60208401611403565b90509250929050565b600080604083850312156114f857600080fd5b61150183611403565b91506114dc60208401611403565b600181811c9082168061152357607f821691505b60208210810361154357634e487b7160e01b600052602260045260246000fd5b50919050565b634e487b7160e01b600052601160045260246000fd5b8082018082111561047957610479611549565b8181038181111561047957610479611549565b60006020828403121561159757600080fd5b5051919050565b60008160001904831182151516156115b8576115b8611549565b500290565b6000826115da57634e487b7160e01b600052601260045260246000fd5b500490565b7f416363657373436f6e74726f6c3a206163636f756e74200000000000000000008152600083516116178160178501602088016113ac565b7f206973206d697373696e6720726f6c652000000000000000000000000000000060179184019182015283516116548160288401602088016113ac565b01602801949350505050565b634e487b7160e01b600052604160045260246000fd5b634e487b7160e01b600052603260045260246000fd5b60008161169b5761169b611549565b50600019019056fea264697066735822122004c41a32c5ffb94579dd8b3639b9a5dae52c090cb09e1f48e952f41713e9915964736f6c63430008100033",
  "devdoc": {
    "kind": "dev",
    "methods": {
      "allowance(address,address)": {
        "details": "See {IERC20-allowance}."
      },
      "approve(address,uint256)": {
        "details": "See {IERC20-approve}. NOTE: If `amount` is the maximum `uint256`, the allowance is not updated on `transferFrom`. This is semantically equivalent to an infinite approval. Requirements: - `spender` cannot be the zero address."
      },
      "balanceOf(address)": {
        "details": "See {IERC20-balanceOf}."
      },
      "burnToken(address,uint256)": {
        "params": {
          "_amount": "Quantity of SCT to burn"
        }
      },
      "decimals()": {
        "details": "Returns the number of decimals used to get its user representation. For example, if `decimals` equals `2`, a balance of `505` tokens should be displayed to a user as `5.05` (`505 / 10 ** 2`). Tokens usually opt for a value of 18, imitating the relationship between Ether and Wei. This is the value {ERC20} uses, unless this function is overridden; NOTE: This information is only used for _display_ purposes: it in no way affects any of the arithmetic of the contract, including {IERC20-balanceOf} and {IERC20-transfer}."
      },
      "decreaseAllowance(address,uint256)": {
        "details": "Atomically decreases the allowance granted to `spender` by the caller. This is an alternative to {approve} that can be used as a mitigation for problems described in {IERC20-approve}. Emits an {Approval} event indicating the updated allowance. Requirements: - `spender` cannot be the zero address. - `spender` must have allowance for the caller of at least `subtractedValue`."
      },
      "getRoleAdmin(bytes32)": {
        "details": "Returns the admin role that controls `role`. See {grantRole} and {revokeRole}. To change a role's admin, use {_setRoleAdmin}."
      },
      "grantRole(bytes32,address)": {
        "details": "Grants `role` to `account`. If `account` had not been already granted `role`, emits a {RoleGranted} event. Requirements: - the caller must have ``role``'s admin role. May emit a {RoleGranted} event."
      },
      "grantToken(address,uint256)": {
        "details": "This is a function reserved for owners and approved contracts"
      },
      "hasRole(bytes32,address)": {
        "details": "Returns `true` if `account` has been granted `role`."
      },
      "increaseAllowance(address,uint256)": {
        "details": "Atomically increases the allowance granted to `spender` by the caller. This is an alternative to {approve} that can be used as a mitigation for problems described in {IERC20-approve}. Emits an {Approval} event indicating the updated allowance. Requirements: - `spender` cannot be the zero address."
      },
      "name()": {
        "details": "Returns the name of the token."
      },
      "renounceRole(bytes32,address)": {
        "details": "Revokes `role` from the calling account. Roles are often managed via {grantRole} and {revokeRole}: this function's purpose is to provide a mechanism for accounts to lose their privileges if they are compromised (such as when a trusted device is misplaced). If the calling account had been revoked `role`, emits a {RoleRevoked} event. Requirements: - the caller must be `account`. May emit a {RoleRevoked} event."
      },
      "revokeRole(bytes32,address)": {
        "details": "Revokes `role` from `account`. If `account` had been granted `role`, emits a {RoleRevoked} event. Requirements: - the caller must have ``role``'s admin role. May emit a {RoleRevoked} event."
      },
      "supportsInterface(bytes4)": {
        "details": "See {IERC165-supportsInterface}."
      },
      "symbol()": {
        "details": "Returns the symbol of the token, usually a shorter version of the name."
      },
      "totalSupply()": {
        "details": "See {IERC20-totalSupply}."
      },
      "transfer(address,uint256)": {
        "details": "See {IERC20-transfer}. Requirements: - `to` cannot be the zero address. - the caller must have a balance of at least `amount`."
      },
      "transferFrom(address,address,uint256)": {
        "details": "See {IERC20-transferFrom}. Emits an {Approval} event indicating the updated allowance. This is not required by the EIP. See the note at the beginning of {ERC20}. NOTE: Does not update the allowance if the current allowance is the maximum `uint256`. Requirements: - `from` and `to` cannot be the zero address. - `from` must have a balance of at least `amount`. - the caller must have allowance for ``from``'s tokens of at least `amount`."
      },
      "unclaimedBalanceOf(address)": {
        "params": {
          "_account": "the account to check the unclaimed balance for"
        }
      },
      "updateReward(address)": {
        "details": "Note this does not claim the balance, it just updates the unclaimed reward amount"
      },
      "updateReward(address,address)": {
        "details": "Note this does not claim the balance, it just updates the unclaimed reward amount"
      }
    },
    "version": 1
  },
  "userdoc": {
    "errors": {
      "ClaimingZeroReward()": [
        {
          "notice": "Attempting to claim a zero balance reward"
        }
      ],
      "InvalidRoleForAction()": [
        {
          "notice": "Does not have the correct permissions to execute this function"
        }
      ]
    },
    "kind": "user",
    "methods": {
      "burnToken(address,uint256)": {
        "notice": "Burns an amount of token owned by the user"
      },
      "claimToken()": {
        "notice": "Claims the pending unclaimed token to the callers wallet"
      },
      "grantToken(address,uint256)": {
        "notice": "Grants amount of token to recipient"
      },
      "unclaimedBalanceOf(address)": {
        "notice": "Get the unclaimed/claimable balance of an account"
      },
      "updateReward(address)": {
        "notice": "Update the currently stored award for just a receiver (e.g on mint)"
      },
      "updateReward(address,address)": {
        "notice": "Update the currently stored award amount after transfer"
      }
    },
    "version": 1
  },
  "storageLayout": {
    "storage": [
      {
        "astId": 521,
        "contract": "contracts/implementations/Scoot.sol:Scoot",
        "label": "_balances",
        "offset": 0,
        "slot": "0",
        "type": "t_mapping(t_address,t_uint256)"
      },
      {
        "astId": 527,
        "contract": "contracts/implementations/Scoot.sol:Scoot",
        "label": "_allowances",
        "offset": 0,
        "slot": "1",
        "type": "t_mapping(t_address,t_mapping(t_address,t_uint256))"
      },
      {
        "astId": 529,
        "contract": "contracts/implementations/Scoot.sol:Scoot",
        "label": "_totalSupply",
        "offset": 0,
        "slot": "2",
        "type": "t_uint256"
      },
      {
        "astId": 531,
        "contract": "contracts/implementations/Scoot.sol:Scoot",
        "label": "_name",
        "offset": 0,
        "slot": "3",
        "type": "t_string_storage"
      },
      {
        "astId": 533,
        "contract": "contracts/implementations/Scoot.sol:Scoot",
        "label": "_symbol",
        "offset": 0,
        "slot": "4",
        "type": "t_string_storage"
      },
      {
        "astId": 24,
        "contract": "contracts/implementations/Scoot.sol:Scoot",
        "label": "_roles",
        "offset": 0,
        "slot": "5",
        "type": "t_mapping(t_bytes32,t_struct(RoleData)19_storage)"
      },
      {
        "astId": 1898,
        "contract": "contracts/implementations/Scoot.sol:Scoot",
        "label": "lastClaimedTime",
        "offset": 0,
        "slot": "6",
        "type": "t_mapping(t_address,t_uint256)"
      },
      {
        "astId": 1902,
        "contract": "contracts/implementations/Scoot.sol:Scoot",
        "label": "pendingReward",
        "offset": 0,
        "slot": "7",
        "type": "t_mapping(t_address,t_uint256)"
      }
    ],
    "types": {
      "t_address": {
        "encoding": "inplace",
        "label": "address",
        "numberOfBytes": "20"
      },
      "t_bool": {
        "encoding": "inplace",
        "label": "bool",
        "numberOfBytes": "1"
      },
      "t_bytes32": {
        "encoding": "inplace",
        "label": "bytes32",
        "numberOfBytes": "32"
      },
      "t_mapping(t_address,t_bool)": {
        "encoding": "mapping",
        "key": "t_address",
        "label": "mapping(address => bool)",
        "numberOfBytes": "32",
        "value": "t_bool"
      },
      "t_mapping(t_address,t_mapping(t_address,t_uint256))": {
        "encoding": "mapping",
        "key": "t_address",
        "label": "mapping(address => mapping(address => uint256))",
        "numberOfBytes": "32",
        "value": "t_mapping(t_address,t_uint256)"
      },
      "t_mapping(t_address,t_uint256)": {
        "encoding": "mapping",
        "key": "t_address",
        "label": "mapping(address => uint256)",
        "numberOfBytes": "32",
        "value": "t_uint256"
      },
      "t_mapping(t_bytes32,t_struct(RoleData)19_storage)": {
        "encoding": "mapping",
        "key": "t_bytes32",
        "label": "mapping(bytes32 => struct AccessControl.RoleData)",
        "numberOfBytes": "32",
        "value": "t_struct(RoleData)19_storage"
      },
      "t_string_storage": {
        "encoding": "bytes",
        "label": "string",
        "numberOfBytes": "32"
      },
      "t_struct(RoleData)19_storage": {
        "encoding": "inplace",
        "label": "struct AccessControl.RoleData",
        "members": [
          {
            "astId": 16,
            "contract": "contracts/implementations/Scoot.sol:Scoot",
            "label": "members",
            "offset": 0,
            "slot": "0",
            "type": "t_mapping(t_address,t_bool)"
          },
          {
            "astId": 18,
            "contract": "contracts/implementations/Scoot.sol:Scoot",
            "label": "adminRole",
            "offset": 0,
            "slot": "1",
            "type": "t_bytes32"
          }
        ],
        "numberOfBytes": "64"
      },
      "t_uint256": {
        "encoding": "inplace",
        "label": "uint256",
        "numberOfBytes": "32"
      }
    }
  }
}