{
  "address": "0xe7f1725E7734CE288F8367e1Bb143E90bb3F0512",
  "abi": [
    {
      "inputs": [
        {
          "internalType": "uint256",
          "name": "initialSupply",
          "type": "uint256"
        },
        {
          "internalType": "address[]",
          "name": "defaultOperators",
          "type": "address[]"
        }
      ],
      "stateMutability": "nonpayable",
      "type": "constructor"
    },
    {
      "anonymous": false,
      "inputs": [
        {
          "indexed": true,
          "internalType": "address",
          "name": "owner",
          "type": "address"
        },
        {
          "indexed": true,
          "internalType": "address",
          "name": "spender",
          "type": "address"
        },
        {
          "indexed": false,
          "internalType": "uint256",
          "name": "value",
          "type": "uint256"
        }
      ],
      "name": "Approval",
      "type": "event"
    },
    {
      "anonymous": false,
      "inputs": [
        {
          "indexed": true,
          "internalType": "address",
          "name": "from",
          "type": "address"
        },
        {
          "indexed": true,
          "internalType": "address",
          "name": "to",
          "type": "address"
        },
        {
          "indexed": false,
          "internalType": "uint256",
          "name": "value",
          "type": "uint256"
        }
      ],
      "name": "Transfer",
      "type": "event"
    },
    {
      "inputs": [
        {
          "internalType": "address",
          "name": "owner",
          "type": "address"
        },
        {
          "internalType": "address",
          "name": "spender",
          "type": "address"
        }
      ],
      "name": "allowance",
      "outputs": [
        {
          "internalType": "uint256",
          "name": "",
          "type": "uint256"
        }
      ],
      "stateMutability": "view",
      "type": "function"
    },
    {
      "inputs": [
        {
          "internalType": "address",
          "name": "spender",
          "type": "address"
        },
        {
          "internalType": "uint256",
          "name": "amount",
          "type": "uint256"
        }
      ],
      "name": "approve",
      "outputs": [
        {
          "internalType": "bool",
          "name": "",
          "type": "bool"
        }
      ],
      "stateMutability": "nonpayable",
      "type": "function"
    },
    {
      "inputs": [
        {
          "internalType": "address",
          "name": "account",
          "type": "address"
        }
      ],
      "name": "balanceOf",
      "outputs": [
        {
          "internalType": "uint256",
          "name": "",
          "type": "uint256"
        }
      ],
      "stateMutability": "view",
      "type": "function"
    },
    {
      "inputs": [
        {
          "internalType": "uint256",
          "name": "_amount",
          "type": "uint256"
        }
      ],
      "name": "burnToken",
      "outputs": [],
      "stateMutability": "nonpayable",
      "type": "function"
    },
    {
      "inputs": [],
      "name": "claimToken",
      "outputs": [],
      "stateMutability": "nonpayable",
      "type": "function"
    },
    {
      "inputs": [],
      "name": "decimals",
      "outputs": [
        {
          "internalType": "uint8",
          "name": "",
          "type": "uint8"
        }
      ],
      "stateMutability": "view",
      "type": "function"
    },
    {
      "inputs": [
        {
          "internalType": "address",
          "name": "spender",
          "type": "address"
        },
        {
          "internalType": "uint256",
          "name": "subtractedValue",
          "type": "uint256"
        }
      ],
      "name": "decreaseAllowance",
      "outputs": [
        {
          "internalType": "bool",
          "name": "",
          "type": "bool"
        }
      ],
      "stateMutability": "nonpayable",
      "type": "function"
    },
    {
      "inputs": [
        {
          "internalType": "address",
          "name": "_account",
          "type": "address"
        }
      ],
      "name": "getBalance",
      "outputs": [],
      "stateMutability": "view",
      "type": "function"
    },
    {
      "inputs": [
        {
          "internalType": "address",
          "name": "_account",
          "type": "address"
        }
      ],
      "name": "getUnclaimedBalance",
      "outputs": [],
      "stateMutability": "view",
      "type": "function"
    },
    {
      "inputs": [
        {
          "internalType": "address",
          "name": "_recipient",
          "type": "address"
        },
        {
          "internalType": "uint256",
          "name": "_amount",
          "type": "uint256"
        }
      ],
      "name": "grantToken",
      "outputs": [],
      "stateMutability": "nonpayable",
      "type": "function"
    },
    {
      "inputs": [
        {
          "internalType": "address",
          "name": "spender",
          "type": "address"
        },
        {
          "internalType": "uint256",
          "name": "addedValue",
          "type": "uint256"
        }
      ],
      "name": "increaseAllowance",
      "outputs": [
        {
          "internalType": "bool",
          "name": "",
          "type": "bool"
        }
      ],
      "stateMutability": "nonpayable",
      "type": "function"
    },
    {
      "inputs": [],
      "name": "name",
      "outputs": [
        {
          "internalType": "string",
          "name": "",
          "type": "string"
        }
      ],
      "stateMutability": "view",
      "type": "function"
    },
    {
      "inputs": [],
      "name": "symbol",
      "outputs": [
        {
          "internalType": "string",
          "name": "",
          "type": "string"
        }
      ],
      "stateMutability": "view",
      "type": "function"
    },
    {
      "inputs": [],
      "name": "totalSupply",
      "outputs": [
        {
          "internalType": "uint256",
          "name": "",
          "type": "uint256"
        }
      ],
      "stateMutability": "view",
      "type": "function"
    },
    {
      "inputs": [
        {
          "internalType": "address",
          "name": "to",
          "type": "address"
        },
        {
          "internalType": "uint256",
          "name": "amount",
          "type": "uint256"
        }
      ],
      "name": "transfer",
      "outputs": [
        {
          "internalType": "bool",
          "name": "",
          "type": "bool"
        }
      ],
      "stateMutability": "nonpayable",
      "type": "function"
    },
    {
      "inputs": [
        {
          "internalType": "address",
          "name": "from",
          "type": "address"
        },
        {
          "internalType": "address",
          "name": "to",
          "type": "address"
        },
        {
          "internalType": "uint256",
          "name": "amount",
          "type": "uint256"
        }
      ],
      "name": "transferFrom",
      "outputs": [
        {
          "internalType": "bool",
          "name": "",
          "type": "bool"
        }
      ],
      "stateMutability": "nonpayable",
      "type": "function"
    }
  ],
  "transactionHash": "0x81b2b7ffc96c860f5824aa0885090948f540be481b9278f4e327398b1ef781b1",
  "args": [
    "1000000000000000000000000000",
    []
  ],
  "numDeployments": 1,
  "solcInputHash": "244cdbd2beb837737b930634f0eaa0d4",
  "bytecode": "0x60806040523480156200001157600080fd5b5060405162000c3638038062000c368339810160408190526200003491620000cc565b6040518060400160405280600581526020016414d8dbdbdd60da1b8152506040518060400160405280600381526020016214d0d560ea1b81525081600390816200007f91906200023b565b5060046200008e82826200023b565b505050505062000307565b634e487b7160e01b600052604160045260246000fd5b80516001600160a01b0381168114620000c757600080fd5b919050565b60008060408385031215620000e057600080fd5b8251602080850151919350906001600160401b03808211156200010257600080fd5b818601915086601f8301126200011757600080fd5b8151818111156200012c576200012c62000099565b8060051b604051601f19603f8301168101818110858211171562000154576200015462000099565b6040529182528482019250838101850191898311156200017357600080fd5b938501935b828510156200019c576200018c85620000af565b8452938501939285019262000178565b8096505050505050509250929050565b600181811c90821680620001c157607f821691505b602082108103620001e257634e487b7160e01b600052602260045260246000fd5b50919050565b601f8211156200023657600081815260208120601f850160051c81016020861015620002115750805b601f850160051c820191505b8181101562000232578281556001016200021d565b5050505b505050565b81516001600160401b0381111562000257576200025762000099565b6200026f81620002688454620001ac565b84620001e8565b602080601f831160018114620002a757600084156200028e5750858301515b600019600386901b1c1916600185901b17855562000232565b600085815260208120601f198616915b82811015620002d857888601518255948401946001909101908401620002b7565b5085821015620002f75787850151600019600388901b60f8161c191681555b5050505050600190811b01905550565b61091f80620003176000396000f3fe608060405234801561001057600080fd5b50600436106101005760003560e01c80637b47ec1a11610097578063a9059cbb11610066578063a9059cbb146101f2578063dd62ed3e14610205578063f8b2cb4f146101c9578063f8fb886f1461021857600080fd5b80637b47ec1a146101b857806386f8950a146101c957806395d89b41146101d7578063a457c2d7146101df57600080fd5b8063313ce567116100d3578063313ce5671461016b578063395093511461017a5780634451d89f1461018d57806370a082311461018f57600080fd5b806306fdde0314610105578063095ea7b31461012357806318160ddd1461014657806323b872dd14610158575b600080fd5b61010d61022a565b60405161011a9190610750565b60405180910390f35b6101366101313660046107ba565b6102bc565b604051901515815260200161011a565b6002545b60405190815260200161011a565b6101366101663660046107e4565b6102d6565b6040516012815260200161011a565b6101366101883660046107ba565b6102fa565b005b61014a61019d366004610820565b6001600160a01b031660009081526020819052604090205490565b61018d6101c6366004610842565b50565b61018d6101c6366004610820565b61010d61031c565b6101366101ed3660046107ba565b61032b565b6101366102003660046107ba565b6103ab565b61014a61021336600461085b565b6103b9565b61018d6102263660046107ba565b5050565b6060600380546102399061088e565b80601f01602080910402602001604051908101604052809291908181526020018280546102659061088e565b80156102b25780601f10610287576101008083540402835291602001916102b2565b820191906000526020600020905b81548152906001019060200180831161029557829003601f168201915b5050505050905090565b6000336102ca8185856103e4565b60019150505b92915050565b6000336102e4858285610508565b6102ef858585610582565b506001949350505050565b6000336102ca81858561030d83836103b9565b61031791906108c8565b6103e4565b6060600480546102399061088e565b6000338161033982866103b9565b90508381101561039e5760405162461bcd60e51b815260206004820152602560248201527f45524332303a2064656372656173656420616c6c6f77616e63652062656c6f77604482015264207a65726f60d81b60648201526084015b60405180910390fd5b6102ef82868684036103e4565b6000336102ca818585610582565b6001600160a01b03918216600090815260016020908152604080832093909416825291909152205490565b6001600160a01b0383166104465760405162461bcd60e51b8152602060048201526024808201527f45524332303a20617070726f76652066726f6d20746865207a65726f206164646044820152637265737360e01b6064820152608401610395565b6001600160a01b0382166104a75760405162461bcd60e51b815260206004820152602260248201527f45524332303a20617070726f766520746f20746865207a65726f206164647265604482015261737360f01b6064820152608401610395565b6001600160a01b0383811660008181526001602090815260408083209487168084529482529182902085905590518481527f8c5be1e5ebec7d5bd14f71427d1e84f3dd0314c0f7b2291e5b200ac8c7c3b925910160405180910390a3505050565b600061051484846103b9565b9050600019811461057c578181101561056f5760405162461bcd60e51b815260206004820152601d60248201527f45524332303a20696e73756666696369656e7420616c6c6f77616e63650000006044820152606401610395565b61057c84848484036103e4565b50505050565b6001600160a01b0383166105e65760405162461bcd60e51b815260206004820152602560248201527f45524332303a207472616e736665722066726f6d20746865207a65726f206164604482015264647265737360d81b6064820152608401610395565b6001600160a01b0382166106485760405162461bcd60e51b815260206004820152602360248201527f45524332303a207472616e7366657220746f20746865207a65726f206164647260448201526265737360e81b6064820152608401610395565b6001600160a01b038316600090815260208190526040902054818110156106c05760405162461bcd60e51b815260206004820152602660248201527f45524332303a207472616e7366657220616d6f756e7420657863656564732062604482015265616c616e636560d01b6064820152608401610395565b6001600160a01b038085166000908152602081905260408082208585039055918516815290812080548492906106f79084906108c8565b92505081905550826001600160a01b0316846001600160a01b03167fddf252ad1be2c89b69c2b068fc378daa952ba7f163c4a11628f55a4df523b3ef8460405161074391815260200190565b60405180910390a361057c565b600060208083528351808285015260005b8181101561077d57858101830151858201604001528201610761565b506000604082860101526040601f19601f8301168501019250505092915050565b80356001600160a01b03811681146107b557600080fd5b919050565b600080604083850312156107cd57600080fd5b6107d68361079e565b946020939093013593505050565b6000806000606084860312156107f957600080fd5b6108028461079e565b92506108106020850161079e565b9150604084013590509250925092565b60006020828403121561083257600080fd5b61083b8261079e565b9392505050565b60006020828403121561085457600080fd5b5035919050565b6000806040838503121561086e57600080fd5b6108778361079e565b91506108856020840161079e565b90509250929050565b600181811c908216806108a257607f821691505b6020821081036108c257634e487b7160e01b600052602260045260246000fd5b50919050565b808201808211156102d057634e487b7160e01b600052601160045260246000fdfea2646970667358221220eec1e8b489ecba9dbf2f211b57d3704d297ff3b426c77f9f1de3ca21656f986364736f6c63430008100033",
  "devdoc": {
    "kind": "dev",
    "methods": {
      "allowance(address,address)": {
        "details": "See {IERC20-allowance}."
      },
      "approve(address,uint256)": {
        "details": "See {IERC20-approve}. NOTE: If `amount` is the maximum `uint256`, the allowance is not updated on `transferFrom`. This is semantically equivalent to an infinite approval. Requirements: - `spender` cannot be the zero address."
      },
      "balanceOf(address)": {
        "details": "See {IERC20-balanceOf}."
      },
      "burnToken(uint256)": {
        "params": {
          "_amount": "Quantity of SCT to burn"
        }
      },
      "decimals()": {
        "details": "Returns the number of decimals used to get its user representation. For example, if `decimals` equals `2`, a balance of `505` tokens should be displayed to a user as `5.05` (`505 / 10 ** 2`). Tokens usually opt for a value of 18, imitating the relationship between Ether and Wei. This is the value {ERC20} uses, unless this function is overridden; NOTE: This information is only used for _display_ purposes: it in no way affects any of the arithmetic of the contract, including {IERC20-balanceOf} and {IERC20-transfer}."
      },
      "decreaseAllowance(address,uint256)": {
        "details": "Atomically decreases the allowance granted to `spender` by the caller. This is an alternative to {approve} that can be used as a mitigation for problems described in {IERC20-approve}. Emits an {Approval} event indicating the updated allowance. Requirements: - `spender` cannot be the zero address. - `spender` must have allowance for the caller of at least `subtractedValue`."
      },
      "getBalance(address)": {
        "params": {
          "_account": "the account to check the balance for"
        }
      },
      "getUnclaimedBalance(address)": {
        "params": {
          "_account": "the account to check the unclaimed balance for"
        }
      },
      "grantToken(address,uint256)": {
        "details": "This is a function reserved for owners and approved contracts"
      },
      "increaseAllowance(address,uint256)": {
        "details": "Atomically increases the allowance granted to `spender` by the caller. This is an alternative to {approve} that can be used as a mitigation for problems described in {IERC20-approve}. Emits an {Approval} event indicating the updated allowance. Requirements: - `spender` cannot be the zero address."
      },
      "name()": {
        "details": "Returns the name of the token."
      },
      "symbol()": {
        "details": "Returns the symbol of the token, usually a shorter version of the name."
      },
      "totalSupply()": {
        "details": "See {IERC20-totalSupply}."
      },
      "transfer(address,uint256)": {
        "details": "See {IERC20-transfer}. Requirements: - `to` cannot be the zero address. - the caller must have a balance of at least `amount`."
      },
      "transferFrom(address,address,uint256)": {
        "details": "See {IERC20-transferFrom}. Emits an {Approval} event indicating the updated allowance. This is not required by the EIP. See the note at the beginning of {ERC20}. NOTE: Does not update the allowance if the current allowance is the maximum `uint256`. Requirements: - `from` and `to` cannot be the zero address. - `from` must have a balance of at least `amount`. - the caller must have allowance for ``from``'s tokens of at least `amount`."
      }
    },
    "version": 1
  },
  "userdoc": {
    "kind": "user",
    "methods": {
      "burnToken(uint256)": {
        "notice": "Burns an amount of token owned by the user"
      },
      "claimToken()": {
        "notice": "Claims the pending unclaimed token to the callers wallet"
      },
      "getBalance(address)": {
        "notice": "Get the current wallet balance of an account"
      },
      "getUnclaimedBalance(address)": {
        "notice": "Get the unclaimed/claimable balance of an account"
      },
      "grantToken(address,uint256)": {
        "notice": "Grants amount of token to recipient"
      }
    },
    "version": 1
  },
  "storageLayout": {
    "storage": [
      {
        "astId": 128,
        "contract": "contracts/implementations/Scoot.sol:Scoot",
        "label": "_balances",
        "offset": 0,
        "slot": "0",
        "type": "t_mapping(t_address,t_uint256)"
      },
      {
        "astId": 134,
        "contract": "contracts/implementations/Scoot.sol:Scoot",
        "label": "_allowances",
        "offset": 0,
        "slot": "1",
        "type": "t_mapping(t_address,t_mapping(t_address,t_uint256))"
      },
      {
        "astId": 136,
        "contract": "contracts/implementations/Scoot.sol:Scoot",
        "label": "_totalSupply",
        "offset": 0,
        "slot": "2",
        "type": "t_uint256"
      },
      {
        "astId": 138,
        "contract": "contracts/implementations/Scoot.sol:Scoot",
        "label": "_name",
        "offset": 0,
        "slot": "3",
        "type": "t_string_storage"
      },
      {
        "astId": 140,
        "contract": "contracts/implementations/Scoot.sol:Scoot",
        "label": "_symbol",
        "offset": 0,
        "slot": "4",
        "type": "t_string_storage"
      }
    ],
    "types": {
      "t_address": {
        "encoding": "inplace",
        "label": "address",
        "numberOfBytes": "20"
      },
      "t_mapping(t_address,t_mapping(t_address,t_uint256))": {
        "encoding": "mapping",
        "key": "t_address",
        "label": "mapping(address => mapping(address => uint256))",
        "numberOfBytes": "32",
        "value": "t_mapping(t_address,t_uint256)"
      },
      "t_mapping(t_address,t_uint256)": {
        "encoding": "mapping",
        "key": "t_address",
        "label": "mapping(address => uint256)",
        "numberOfBytes": "32",
        "value": "t_uint256"
      },
      "t_string_storage": {
        "encoding": "bytes",
        "label": "string",
        "numberOfBytes": "32"
      },
      "t_uint256": {
        "encoding": "inplace",
        "label": "uint256",
        "numberOfBytes": "32"
      }
    }
  }
}