{
  "address": "0x5FbDB2315678afecb367f032d93F642f64180aa3",
  "abi": [
    {
      "inputs": [
        {
          "internalType": "address",
          "name": "_ownerAddress",
          "type": "address"
        }
      ],
      "stateMutability": "nonpayable",
      "type": "constructor"
    },
    {
      "inputs": [],
      "name": "ApprovalCallerNotOwnerNorApproved",
      "type": "error"
    },
    {
      "inputs": [],
      "name": "ApprovalQueryForNonexistentToken",
      "type": "error"
    },
    {
      "inputs": [],
      "name": "ApproveToCaller",
      "type": "error"
    },
    {
      "inputs": [],
      "name": "BalanceQueryForZeroAddress",
      "type": "error"
    },
    {
      "inputs": [
        {
          "internalType": "uint256",
          "name": "_tokenId",
          "type": "uint256"
        }
      ],
      "name": "CannotTransferStaked",
      "type": "error"
    },
    {
      "inputs": [],
      "name": "IncorrectPaymentAmount",
      "type": "error"
    },
    {
      "inputs": [],
      "name": "InvalidMintQuantity",
      "type": "error"
    },
    {
      "inputs": [],
      "name": "MintERC2309QuantityExceedsLimit",
      "type": "error"
    },
    {
      "inputs": [],
      "name": "MintToZeroAddress",
      "type": "error"
    },
    {
      "inputs": [],
      "name": "MintZeroQuantity",
      "type": "error"
    },
    {
      "inputs": [],
      "name": "NotTokenOwner",
      "type": "error"
    },
    {
      "inputs": [],
      "name": "OwnerQueryForNonexistentToken",
      "type": "error"
    },
    {
      "inputs": [],
      "name": "OwnershipNotInitializedForExtraData",
      "type": "error"
    },
    {
      "inputs": [],
      "name": "SaleInactive",
      "type": "error"
    },
    {
      "inputs": [],
      "name": "SupplyWillBeExceeded",
      "type": "error"
    },
    {
      "inputs": [
        {
          "internalType": "uint256",
          "name": "_tokenId",
          "type": "uint256"
        }
      ],
      "name": "TokenAlreadyStaked",
      "type": "error"
    },
    {
      "inputs": [
        {
          "internalType": "uint256",
          "name": "_tokenId",
          "type": "uint256"
        }
      ],
      "name": "TokenInLockin",
      "type": "error"
    },
    {
      "inputs": [
        {
          "internalType": "uint256",
          "name": "_tokenId",
          "type": "uint256"
        }
      ],
      "name": "TokenNotStaked",
      "type": "error"
    },
    {
      "inputs": [],
      "name": "TransferCallerNotOwnerNorApproved",
      "type": "error"
    },
    {
      "inputs": [],
      "name": "TransferFromIncorrectOwner",
      "type": "error"
    },
    {
      "inputs": [],
      "name": "TransferToNonERC721ReceiverImplementer",
      "type": "error"
    },
    {
      "inputs": [],
      "name": "TransferToZeroAddress",
      "type": "error"
    },
    {
      "inputs": [],
      "name": "URIQueryForNonexistentToken",
      "type": "error"
    },
    {
      "anonymous": false,
      "inputs": [
        {
          "indexed": true,
          "internalType": "address",
          "name": "owner",
          "type": "address"
        },
        {
          "indexed": true,
          "internalType": "address",
          "name": "approved",
          "type": "address"
        },
        {
          "indexed": true,
          "internalType": "uint256",
          "name": "tokenId",
          "type": "uint256"
        }
      ],
      "name": "Approval",
      "type": "event"
    },
    {
      "anonymous": false,
      "inputs": [
        {
          "indexed": true,
          "internalType": "address",
          "name": "owner",
          "type": "address"
        },
        {
          "indexed": true,
          "internalType": "address",
          "name": "operator",
          "type": "address"
        },
        {
          "indexed": false,
          "internalType": "bool",
          "name": "approved",
          "type": "bool"
        }
      ],
      "name": "ApprovalForAll",
      "type": "event"
    },
    {
      "anonymous": false,
      "inputs": [
        {
          "indexed": true,
          "internalType": "uint256",
          "name": "fromTokenId",
          "type": "uint256"
        },
        {
          "indexed": false,
          "internalType": "uint256",
          "name": "toTokenId",
          "type": "uint256"
        },
        {
          "indexed": true,
          "internalType": "address",
          "name": "from",
          "type": "address"
        },
        {
          "indexed": true,
          "internalType": "address",
          "name": "to",
          "type": "address"
        }
      ],
      "name": "ConsecutiveTransfer",
      "type": "event"
    },
    {
      "anonymous": false,
      "inputs": [
        {
          "indexed": true,
          "internalType": "address",
          "name": "previousOwner",
          "type": "address"
        },
        {
          "indexed": true,
          "internalType": "address",
          "name": "newOwner",
          "type": "address"
        }
      ],
      "name": "OwnershipTransferred",
      "type": "event"
    },
    {
      "anonymous": false,
      "inputs": [
        {
          "indexed": true,
          "internalType": "address",
          "name": "_owner",
          "type": "address"
        },
        {
          "indexed": false,
          "internalType": "uint256[]",
          "name": "_tokens",
          "type": "uint256[]"
        },
        {
          "indexed": false,
          "internalType": "uint256",
          "name": "_lockinPeriod",
          "type": "uint256"
        }
      ],
      "name": "Stake",
      "type": "event"
    },
    {
      "anonymous": false,
      "inputs": [
        {
          "indexed": true,
          "internalType": "address",
          "name": "from",
          "type": "address"
        },
        {
          "indexed": true,
          "internalType": "address",
          "name": "to",
          "type": "address"
        },
        {
          "indexed": true,
          "internalType": "uint256",
          "name": "tokenId",
          "type": "uint256"
        }
      ],
      "name": "Transfer",
      "type": "event"
    },
    {
      "anonymous": false,
      "inputs": [
        {
          "indexed": true,
          "internalType": "address",
          "name": "_owner",
          "type": "address"
        },
        {
          "indexed": false,
          "internalType": "uint256[]",
          "name": "_tokens",
          "type": "uint256[]"
        }
      ],
      "name": "Unstake",
      "type": "event"
    },
    {
      "inputs": [
        {
          "internalType": "address",
          "name": "to",
          "type": "address"
        },
        {
          "internalType": "uint256",
          "name": "tokenId",
          "type": "uint256"
        }
      ],
      "name": "approve",
      "outputs": [],
      "stateMutability": "nonpayable",
      "type": "function"
    },
    {
      "inputs": [
        {
          "internalType": "address",
          "name": "owner",
          "type": "address"
        }
      ],
      "name": "balanceOf",
      "outputs": [
        {
          "internalType": "uint256",
          "name": "",
          "type": "uint256"
        }
      ],
      "stateMutability": "view",
      "type": "function"
    },
    {
      "inputs": [
        {
          "internalType": "uint256",
          "name": "_tokenId",
          "type": "uint256"
        }
      ],
      "name": "burn",
      "outputs": [],
      "stateMutability": "nonpayable",
      "type": "function"
    },
    {
      "inputs": [],
      "name": "genesisSupply",
      "outputs": [
        {
          "internalType": "uint256",
          "name": "",
          "type": "uint256"
        }
      ],
      "stateMutability": "view",
      "type": "function"
    },
    {
      "inputs": [
        {
          "internalType": "uint256",
          "name": "tokenId",
          "type": "uint256"
        }
      ],
      "name": "getApproved",
      "outputs": [
        {
          "internalType": "address",
          "name": "",
          "type": "address"
        }
      ],
      "stateMutability": "view",
      "type": "function"
    },
    {
      "inputs": [
        {
          "internalType": "uint256[]",
          "name": "_tokens",
          "type": "uint256[]"
        }
      ],
      "name": "getStakeStatus",
      "outputs": [
        {
          "components": [
            {
              "internalType": "uint64",
              "name": "timeStaked",
              "type": "uint64"
            },
            {
              "internalType": "uint64",
              "name": "lockinPeriod",
              "type": "uint64"
            }
          ],
          "internalType": "struct IStakable.StakedToken[]",
          "name": "",
          "type": "tuple[]"
        }
      ],
      "stateMutability": "view",
      "type": "function"
    },
    {
      "inputs": [
        {
          "internalType": "address",
          "name": "owner",
          "type": "address"
        },
        {
          "internalType": "address",
          "name": "operator",
          "type": "address"
        }
      ],
      "name": "isApprovedForAll",
      "outputs": [
        {
          "internalType": "bool",
          "name": "",
          "type": "bool"
        }
      ],
      "stateMutability": "view",
      "type": "function"
    },
    {
      "inputs": [
        {
          "internalType": "uint256",
          "name": "",
          "type": "uint256"
        }
      ],
      "name": "metadataSeed",
      "outputs": [
        {
          "internalType": "bytes32",
          "name": "",
          "type": "bytes32"
        }
      ],
      "stateMutability": "view",
      "type": "function"
    },
    {
      "inputs": [
        {
          "internalType": "uint256",
          "name": "_quantity",
          "type": "uint256"
        }
      ],
      "name": "mint",
      "outputs": [],
      "stateMutability": "payable",
      "type": "function"
    },
    {
      "inputs": [],
      "name": "name",
      "outputs": [
        {
          "internalType": "string",
          "name": "",
          "type": "string"
        }
      ],
      "stateMutability": "view",
      "type": "function"
    },
    {
      "inputs": [],
      "name": "owner",
      "outputs": [
        {
          "internalType": "address",
          "name": "",
          "type": "address"
        }
      ],
      "stateMutability": "view",
      "type": "function"
    },
    {
      "inputs": [
        {
          "internalType": "uint256",
          "name": "tokenId",
          "type": "uint256"
        }
      ],
      "name": "ownerOf",
      "outputs": [
        {
          "internalType": "address",
          "name": "",
          "type": "address"
        }
      ],
      "stateMutability": "view",
      "type": "function"
    },
    {
      "inputs": [],
      "name": "renounceOwnership",
      "outputs": [],
      "stateMutability": "nonpayable",
      "type": "function"
    },
    {
      "inputs": [
        {
          "internalType": "address",
          "name": "from",
          "type": "address"
        },
        {
          "internalType": "address",
          "name": "to",
          "type": "address"
        },
        {
          "internalType": "uint256",
          "name": "tokenId",
          "type": "uint256"
        }
      ],
      "name": "safeTransferFrom",
      "outputs": [],
      "stateMutability": "nonpayable",
      "type": "function"
    },
    {
      "inputs": [
        {
          "internalType": "address",
          "name": "from",
          "type": "address"
        },
        {
          "internalType": "address",
          "name": "to",
          "type": "address"
        },
        {
          "internalType": "uint256",
          "name": "tokenId",
          "type": "uint256"
        },
        {
          "internalType": "bytes",
          "name": "_data",
          "type": "bytes"
        }
      ],
      "name": "safeTransferFrom",
      "outputs": [],
      "stateMutability": "nonpayable",
      "type": "function"
    },
    {
      "inputs": [],
      "name": "saleActive",
      "outputs": [
        {
          "internalType": "bool",
          "name": "",
          "type": "bool"
        }
      ],
      "stateMutability": "view",
      "type": "function"
    },
    {
      "inputs": [
        {
          "internalType": "uint256",
          "name": "_blueprintId",
          "type": "uint256"
        }
      ],
      "name": "secondaryMint",
      "outputs": [],
      "stateMutability": "nonpayable",
      "type": "function"
    },
    {
      "inputs": [],
      "name": "secondarySupply",
      "outputs": [
        {
          "internalType": "uint256",
          "name": "",
          "type": "uint256"
        }
      ],
      "stateMutability": "view",
      "type": "function"
    },
    {
      "inputs": [
        {
          "internalType": "address",
          "name": "operator",
          "type": "address"
        },
        {
          "internalType": "bool",
          "name": "approved",
          "type": "bool"
        }
      ],
      "name": "setApprovalForAll",
      "outputs": [],
      "stateMutability": "nonpayable",
      "type": "function"
    },
    {
      "inputs": [
        {
          "internalType": "uint256[]",
          "name": "_tokens",
          "type": "uint256[]"
        },
        {
          "internalType": "enum IStakable.LockinPeriod",
          "name": "_lockin",
          "type": "uint8"
        }
      ],
      "name": "stake",
      "outputs": [],
      "stateMutability": "nonpayable",
      "type": "function"
    },
    {
      "inputs": [
        {
          "internalType": "uint256",
          "name": "",
          "type": "uint256"
        }
      ],
      "name": "stakes",
      "outputs": [
        {
          "internalType": "uint64",
          "name": "timeStaked",
          "type": "uint64"
        },
        {
          "internalType": "uint64",
          "name": "lockinPeriod",
          "type": "uint64"
        }
      ],
      "stateMutability": "view",
      "type": "function"
    },
    {
      "inputs": [
        {
          "internalType": "bytes4",
          "name": "interfaceId",
          "type": "bytes4"
        }
      ],
      "name": "supportsInterface",
      "outputs": [
        {
          "internalType": "bool",
          "name": "",
          "type": "bool"
        }
      ],
      "stateMutability": "view",
      "type": "function"
    },
    {
      "inputs": [],
      "name": "symbol",
      "outputs": [
        {
          "internalType": "string",
          "name": "",
          "type": "string"
        }
      ],
      "stateMutability": "view",
      "type": "function"
    },
    {
      "inputs": [],
      "name": "toggleSale",
      "outputs": [],
      "stateMutability": "nonpayable",
      "type": "function"
    },
    {
      "inputs": [
        {
          "internalType": "uint256",
          "name": "tokenId",
          "type": "uint256"
        }
      ],
      "name": "tokenURI",
      "outputs": [
        {
          "internalType": "string",
          "name": "",
          "type": "string"
        }
      ],
      "stateMutability": "view",
      "type": "function"
    },
    {
      "inputs": [],
      "name": "totalSupply",
      "outputs": [
        {
          "internalType": "uint256",
          "name": "",
          "type": "uint256"
        }
      ],
      "stateMutability": "view",
      "type": "function"
    },
    {
      "inputs": [
        {
          "internalType": "address",
          "name": "from",
          "type": "address"
        },
        {
          "internalType": "address",
          "name": "to",
          "type": "address"
        },
        {
          "internalType": "uint256",
          "name": "tokenId",
          "type": "uint256"
        }
      ],
      "name": "transferFrom",
      "outputs": [],
      "stateMutability": "nonpayable",
      "type": "function"
    },
    {
      "inputs": [
        {
          "internalType": "address",
          "name": "newOwner",
          "type": "address"
        }
      ],
      "name": "transferOwnership",
      "outputs": [],
      "stateMutability": "nonpayable",
      "type": "function"
    },
    {
      "inputs": [
        {
          "internalType": "uint256[]",
          "name": "_tokens",
          "type": "uint256[]"
        }
      ],
      "name": "unstake",
      "outputs": [],
      "stateMutability": "nonpayable",
      "type": "function"
    },
    {
      "inputs": [
        {
          "internalType": "address",
          "name": "_walletOwner",
          "type": "address"
        }
      ],
      "name": "walletOf",
      "outputs": [
        {
          "internalType": "uint256[]",
          "name": "result",
          "type": "uint256[]"
        }
      ],
      "stateMutability": "view",
      "type": "function"
    },
    {
      "inputs": [
        {
          "internalType": "address",
          "name": "_recipient",
          "type": "address"
        }
      ],
      "name": "withdraw",
      "outputs": [],
      "stateMutability": "nonpayable",
      "type": "function"
    }
  ],
  "transactionHash": "0xec5a9635da484403f186f0f2cd8d8173cfe6309e57cb4c75a103f6d680e8698f",
  "args": [
    "0xf39Fd6e51aad88F6F4ce6aB8827279cffFb92266"
  ],
  "numDeployments": 1,
  "solcInputHash": "db43ac85b70473de4f18f023c3dfc40f",
  "bytecode": "0x60806040526000600a819055600b55600c80546001600160401b03191667016345785d8a00001790556010805460ff191690553480156200003f57600080fd5b506040516200337638038062003376833981016040819052620000629162000291565b60405180604001604052806008815260200167536375646572696160c01b8152506040518060400160405280600381526020016214d0d160ea1b8152508181620000bb620000b56200016060201b60201c565b62000164565b6003620000c9838262000368565b506004620000d8828262000368565b5050600180555050506001600160a01b0381166200013d5760405162461bcd60e51b815260206004820152601b60248201527f6f776e657220616464726573732063616e6e6f7420626520307830000000000060448201526064015b60405180910390fd5b6001600160a01b038116331462000159576200015981620001b4565b5062000434565b3390565b600080546001600160a01b038381166001600160a01b0319831681178455604051919092169283917f8be0079c531659141344cd1fd0a4f28419497f9722a3daafe3b4186f6b6457e09190a35050565b620001be62000233565b6001600160a01b038116620002255760405162461bcd60e51b815260206004820152602660248201527f4f776e61626c653a206e6577206f776e657220697320746865207a65726f206160448201526564647265737360d01b606482015260840162000134565b620002308162000164565b50565b6000546001600160a01b031633146200028f5760405162461bcd60e51b815260206004820181905260248201527f4f776e61626c653a2063616c6c6572206973206e6f7420746865206f776e6572604482015260640162000134565b565b600060208284031215620002a457600080fd5b81516001600160a01b0381168114620002bc57600080fd5b9392505050565b634e487b7160e01b600052604160045260246000fd5b600181811c90821680620002ee57607f821691505b6020821081036200030f57634e487b7160e01b600052602260045260246000fd5b50919050565b601f8211156200036357600081815260208120601f850160051c810160208610156200033e5750805b601f850160051c820191505b818110156200035f578281556001016200034a565b5050505b505050565b81516001600160401b03811115620003845762000384620002c3565b6200039c81620003958454620002d9565b8462000315565b602080601f831160018114620003d45760008415620003bb5750858301515b600019600386901b1c1916600185901b1785556200035f565b600085815260208120601f198616915b828110156200040557888601518255948401946001909101908401620003e4565b5085821015620004245787850151600019600388901b60f8161c191681555b5050505050600190811b01905550565b612f3280620004446000396000f3fe6080604052600436106101d75760003560e01c8063715018a611610102578063c87b56dd11610095578063dab4fe4e11610064578063dab4fe4e14610589578063e449f341146105b6578063e985e9c5146105d6578063f2fde38b1461061f57600080fd5b8063c87b56dd146104c8578063ce7cea36146104e8578063d1ca41a914610506578063d5a44f861461052657600080fd5b8063a0712d68116100d1578063a0712d681461045f578063a22cb46514610472578063b20a8d4814610492578063b88d4fde146104a857600080fd5b8063715018a6146104025780637d8966e4146104175780638da5cb5b1461042c57806395d89b411461044a57600080fd5b806323b872dd1161017a57806351cff8d91161014957806351cff8d9146103885780636352211e146103a857806368428a1b146103c857806370a08231146103e257600080fd5b806323b872dd1461031257806342842e0e1461033257806342966c68146103525780634bbf179b1461037257600080fd5b8063081812fc116101b6578063081812fc1461026e578063095ea7b3146102a657806318160ddd146102c85780631982640c146102e557600080fd5b8062ad1e3b146101dc57806301ffc9a71461021c57806306fdde031461024c575b600080fd5b3480156101e857600080fd5b506102096101f73660046120ae565b600f6020526000908152604090205481565b6040519081526020015b60405180910390f35b34801561022857600080fd5b5061023c6102373660046120dd565b61063f565b6040519015158152602001610213565b34801561025857600080fd5b50610261610691565b604051610213919061214a565b34801561027a57600080fd5b5061028e6102893660046120ae565b610723565b6040516001600160a01b039091168152602001610213565b3480156102b257600080fd5b506102c66102c1366004612174565b610767565b005b3480156102d457600080fd5b506002546001540360001901610209565b3480156102f157600080fd5b5061030561030036600461219e565b610831565b60405161021391906121f4565b34801561031e57600080fd5b506102c661032d366004612207565b610928565b34801561033e57600080fd5b506102c661034d366004612207565b610af4565b34801561035e57600080fd5b506102c661036d3660046120ae565b610b14565b34801561037e57600080fd5b50610209600a5481565b34801561039457600080fd5b506102c66103a336600461219e565b610b5e565b3480156103b457600080fd5b5061028e6103c33660046120ae565b610b9f565b3480156103d457600080fd5b5060105461023c9060ff1681565b3480156103ee57600080fd5b506102096103fd36600461219e565b610baa565b34801561040e57600080fd5b506102c6610bf9565b34801561042357600080fd5b506102c6610c0d565b34801561043857600080fd5b506000546001600160a01b031661028e565b34801561045657600080fd5b50610261610c29565b6102c661046d3660046120ae565b610c38565b34801561047e57600080fd5b506102c661048d366004612243565b610d58565b34801561049e57600080fd5b50610209600b5481565b3480156104b457600080fd5b506102c66104c33660046122c6565b610ded565b3480156104d457600080fd5b506102616104e33660046120ae565b610e37565b3480156104f457600080fd5b506102c66105033660046120ae565b50565b34801561051257600080fd5b506102c6610521366004612406565b610e79565b34801561053257600080fd5b506105686105413660046120ae565b60096020526000908152604090205467ffffffffffffffff80821691600160401b90041682565b6040805167ffffffffffffffff938416815292909116602083015201610213565b34801561059557600080fd5b506105a96105a4366004612451565b61104c565b6040516102139190612486565b3480156105c257600080fd5b506102c66105d1366004612451565b611151565b3480156105e257600080fd5b5061023c6105f13660046124e3565b6001600160a01b03918216600090815260086020908152604080832093909416825291909152205460ff1690565b34801561062b57600080fd5b506102c661063a36600461219e565b61133d565b60006301ffc9a760e01b6001600160e01b03198316148061067057506380ac58cd60e01b6001600160e01b03198316145b8061068b5750635b5e139f60e01b6001600160e01b03198316145b92915050565b6060600380546106a090612516565b80601f01602080910402602001604051908101604052809291908181526020018280546106cc90612516565b80156107195780601f106106ee57610100808354040283529160200191610719565b820191906000526020600020905b8154815290600101906020018083116106fc57829003601f168201915b5050505050905090565b600061072e826113b3565b61074b576040516333d1c03960e21b815260040160405180910390fd5b506000908152600760205260409020546001600160a01b031690565b600061077282610b9f565b9050336001600160a01b038216146107c8576001600160a01b038116600090815260086020908152604080832033845290915290205460ff166107c8576040516367d9dca160e11b815260040160405180910390fd5b600082815260076020526040808220805473ffffffffffffffffffffffffffffffffffffffff19166001600160a01b0387811691821790925591518593918516917f8c5be1e5ebec7d5bd14f71427d1e84f3dd0314c0f7b2291e5b200ac8c7c3b92591a4505050565b6060600061083e83610baa565b9050806000036108625760408051600080825260208201909252905b509392505050565b8067ffffffffffffffff81111561087b5761087b61227f565b6040519080825280602002602001820160405280156108a4578160200160208202803683370190505b509150600060015b60015460001901811161091f5781831461091f57846001600160a01b03166108d382610b9f565b6001600160a01b03160361090d57808483815181106108f4576108f461254a565b60209081029190910101528161090981612576565b9250505b8061091781612576565b9150506108ac565b50505b50919050565b6000610933826113e8565b9050836001600160a01b0316816001600160a01b0316146109665760405162a1148160e81b815260040160405180910390fd5b600082815260076020526040902080546109928187335b6001600160a01b039081169116811491141790565b6109da576001600160a01b038616600090815260086020908152604080832033845290915290205460ff166109da57604051632ce44b5f60e11b815260040160405180910390fd5b6001600160a01b038516610a0157604051633a954ecd60e21b815260040160405180910390fd5b610a0e868686600161145e565b8015610a1957600082555b6001600160a01b038681166000908152600660205260408082208054600019019055918716808252919020805460010190554260a01b17600160e11b17600085815260056020526040812091909155600160e11b84169003610aab57600184016000818152600560205260408120549003610aa9576001548114610aa95760008181526005602052604090208490555b505b83856001600160a01b0316876001600160a01b03167fddf252ad1be2c89b69c2b068fc378daa952ba7f163c4a11628f55a4df523b3ef60405160405180910390a4505050505050565b610b0f83838360405180602001604052806000815250610ded565b505050565b60008181526009602052604090205467ffffffffffffffff1615610b5357604051635034a20760e01b8152600481018290526024015b60405180910390fd5b6105038160016114e5565b610b6661165b565b6040516001600160a01b038216904780156108fc02916000818181858888f19350505050158015610b9b573d6000803e3d6000fd5b5050565b600061068b826113e8565b60006001600160a01b038216610bd3576040516323d3ad8160e21b815260040160405180910390fd5b506001600160a01b031660009081526006602052604090205467ffffffffffffffff1690565b610c0161165b565b610c0b60006116b5565b565b610c1561165b565b6010805460ff19811660ff90911615179055565b6060600480546106a090612516565b60105460ff16610c5b57604051630fe219dd60e21b815260040160405180910390fd5b61138881600a54610c6c919061258f565b1115610c8b5760405163b03ef06960e01b815260040160405180910390fd5b801580610c9957506103e881115b15610cb75760405163011674e560e71b815260040160405180910390fd5b600c54610ccf90829067ffffffffffffffff166125a2565b3414610cee57604051636992e1ff60e01b815260040160405180910390fd5b60015b818111610d3557600081600a54610d08919061258f565b9050610d1381611712565b6000918252600f60205260409091205580610d2d81612576565b915050610cf1565b5080600a6000828254610d48919061258f565b9091555061050390503382611770565b336001600160a01b03831603610d815760405163b06307db60e01b815260040160405180910390fd5b3360008181526008602090815260408083206001600160a01b03871680855290835292819020805460ff191686151590811790915590519081529192917f17307eab39ab6107e8899845ad3d59bd9653f200f220920489ca2b5937696c31910160405180910390a35050565b610df8848484610928565b6001600160a01b0383163b15610e3157610e148484848461178a565b610e31576040516368d2bf6b60e11b815260040160405180910390fd5b50505050565b6060610e42826113b3565b610e5f57604051630a14c4b560e41b815260040160405180910390fd5b6000828152600f602052604090205461068b908390611876565b6000610e8482611923565b905060005b835181101561100357336001600160a01b0316610ebe858381518110610eb157610eb161254a565b6020026020010151610b9f565b6001600160a01b031614610ee5576040516359dc379f60e01b815260040160405180910390fd5b60096000858381518110610efb57610efb61254a565b60209081029190910181015182528101919091526040016000205467ffffffffffffffff1615610f5b57838181518110610f3757610f3761254a565b60200260200101516040516328f0990960e11b8152600401610b4a91815260200190565b60405180604001604052804267ffffffffffffffff1681526020018367ffffffffffffffff1681525060096000868481518110610f9a57610f9a61254a565b60209081029190910181015182528181019290925260400160002082518154939092015167ffffffffffffffff908116600160401b026fffffffffffffffffffffffffffffffff1990941692169190911791909117905580610ffb81612576565b915050610e89565b50336001600160a01b03167ffb8aecb8b23012599b556fb33ec46f8109af4272df44fda6106fd79601b9cb7e848360405161103f9291906125c1565b60405180910390a2505050565b60606000825167ffffffffffffffff81111561106a5761106a61227f565b6040519080825280602002602001820160405280156110af57816020015b60408051808201909152600080825260208201528152602001906001900390816110885790505b50905060005b835181101561114a57600960008583815181106110d4576110d461254a565b602090810291909101810151825281810192909252604090810160002081518083019092525467ffffffffffffffff8082168352600160401b9091041691810191909152825183908390811061112c5761112c61254a565b6020026020010181905250808061114290612576565b9150506110b5565b5092915050565b60005b81518110156112f8576000600960008484815181106111755761117561254a565b602090810291909101810151825281810192909252604090810160002081518083019092525467ffffffffffffffff8082168352600160401b9091041691810191909152835190915033906111d690859085908110610eb157610eb161254a565b6001600160a01b0316146111fd576040516359dc379f60e01b815260040160405180910390fd5b805167ffffffffffffffff16600003611246578282815181106112225761122261254a565b602002602001015160405163220d012160e11b8152600401610b4a91815260200190565b602081015181514291611258916125ed565b67ffffffffffffffff16111561129e5782828151811061127a5761127a61254a565b60200260200101516040516360a612c760e01b8152600401610b4a91815260200190565b600960008484815181106112b4576112b461254a565b602090810291909101810151825281019190915260400160002080546fffffffffffffffffffffffffffffffff1916905550806112f081612576565b915050611154565b50336001600160a01b03167f8537ffc096ba30690173694a1630e9cdad3b912b48980d0127edbcfe80076b618260405161133291906121f4565b60405180910390a250565b61134561165b565b6001600160a01b0381166113aa5760405162461bcd60e51b815260206004820152602660248201527f4f776e61626c653a206e6577206f776e657220697320746865207a65726f206160448201526564647265737360d01b6064820152608401610b4a565b610503816116b5565b6000816001111580156113c7575060015482105b801561068b575050600090815260056020526040902054600160e01b161590565b60008180600111611445576001548110156114455760008181526005602052604081205490600160e01b82169003611443575b8060000361143c57506000190160008181526005602052604090205461141b565b9392505050565b505b604051636f96cda160e11b815260040160405180910390fd5b6001600160a01b03841615610e315760005b818110156114de5760096000611486838661258f565b815260208101919091526040016000205467ffffffffffffffff16156114cc576114b0818461258f565b604051635034a20760e01b8152600401610b4a91815260200190565b806114d681612576565b915050611470565b5050505050565b60006114f0836113e8565b90508060008061150e86600090815260076020526040902080549091565b91509150841561156b5761152381843361097d565b61156b576001600160a01b038316600090815260086020908152604080832033845290915290205460ff1661156b57604051632ce44b5f60e11b815260040160405180910390fd5b61157983600088600161145e565b801561158457600082555b6001600160a01b038316600081815260066020526040902080546fffffffffffffffffffffffffffffffff0190554260a01b17600360e01b17600087815260056020526040812091909155600160e11b85169003611612576001860160008181526005602052604081205490036116105760015481146116105760008181526005602052604090208590555b505b60405186906000906001600160a01b038616907fddf252ad1be2c89b69c2b068fc378daa952ba7f163c4a11628f55a4df523b3ef908390a4505060028054600101905550505050565b6000546001600160a01b03163314610c0b5760405162461bcd60e51b815260206004820181905260248201527f4f776e61626c653a2063616c6c6572206973206e6f7420746865206f776e65726044820152606401610b4a565b600080546001600160a01b0383811673ffffffffffffffffffffffffffffffffffffffff19831681178455604051919092169283917f8be0079c531659141344cd1fd0a4f28419497f9722a3daafe3b4186f6b6457e09190a35050565b6000424433846040516020016117539493929190938452602084019290925260601b6bffffffffffffffffffffffff19166040830152605482015260740190565b604051602081830303815290604052805190602001209050919050565b610b9b828260405180602001604052806000815250611986565b604051630a85bd0160e11b81526000906001600160a01b0385169063150b7a02906117bf90339089908890889060040161260e565b6020604051808303816000875af19250505080156117fa575060408051601f3d908101601f191682019092526117f79181019061264a565b60015b611858573d808015611828576040519150601f19603f3d011682016040523d82523d6000602084013e61182d565b606091505b508051600003611850576040516368d2bf6b60e11b815260040160405180910390fd5b805181602001fd5b6001600160e01b031916630a85bd0160e11b1490505b949350505050565b60606000611883836119ec565b90506118fb61189182611ab8565b61189a86611b6c565b835160208501516118aa90611b6c565b6118b78660400151611b6c565b6118c48760600151611b6c565b6118d18860800151611b6c565b6040516020016118e79796959493929190612683565b604051602081830303815290604052611c6d565b60405160200161190b91906128e3565b60405160208183030381529060405291505092915050565b60008082600281111561193857611938612928565b03611943575062278d005b600182600281111561195757611957612928565b036119625750624f1a005b600282600281111561197657611976612928565b0361198157506276a7005b919050565b6119908383611dc0565b6001600160a01b0383163b15610b0f576001548281035b6119ba600086838060010194508661178a565b6119d7576040516368d2bf6b60e11b815260040160405180910390fd5b8181106119a75781600154146114de57600080fd5b611a1e6040518060a0016040528060608152602001600081526020016000815260200160008152602001600081525090565b6040518060a00160405280611a34846000611ecb565b8152602001611a486046600686901c612954565b611a5390601f61258f565b8152602001611a676046600c86901c612954565b611a7290601f61258f565b8152602001611a866046601286901c612954565b611a9190601f61258f565b8152602001611aa56046601886901c612954565b611ab090601f61258f565b905292915050565b6060611b468260000151604051602001611ad29190612968565b604051602081830303815290604052611aee8460200151611b6c565b611afb8560400151611b6c565b611b088660600151611b6c565b611b158760800151611b6c565b604051602001611b289493929190612c61565b60408051601f19818403018152908290526118e79291602001612e21565b604051602001611b569190612e50565b6040516020818303038152906040529050919050565b606081600003611b935750506040805180820190915260018152600360fc1b602082015290565b8160005b8115611bbd5780611ba781612576565b9150611bb69050600a83612e95565b9150611b97565b60008167ffffffffffffffff811115611bd857611bd861227f565b6040519080825280601f01601f191660200182016040528015611c02576020820181803683370190505b5090505b841561186e57611c17600183612ea9565b9150611c24600a86612954565b611c2f90603061258f565b60f81b818381518110611c4457611c4461254a565b60200101906001600160f81b031916908160001a905350611c66600a86612e95565b9450611c06565b60608151600003611c8c57505060408051602081019091526000815290565b6000604051806060016040528060408152602001612ebd6040913990506000600384516002611cbb919061258f565b611cc59190612e95565b611cd09060046125a2565b67ffffffffffffffff811115611ce857611ce861227f565b6040519080825280601f01601f191660200182016040528015611d12576020820181803683370190505b509050600182016020820185865187015b80821015611d7e576003820191508151603f8160121c168501518453600184019350603f81600c1c168501518453600184019350603f8160061c168501518453600184019350603f8116850151845350600183019250611d23565b5050600386510660018114611d9a5760028114611dad57611db5565b603d6001830353603d6002830353611db5565b603d60018303535b509195945050505050565b6001546000829003611de55760405163b562e8dd60e01b815260040160405180910390fd5b611df2600084838561145e565b6001600160a01b03831660008181526006602090815260408083208054680100000000000000018802019055848352600590915281206001851460e11b4260a01b178317905582840190839083907fddf252ad1be2c89b69c2b068fc378daa952ba7f163c4a11628f55a4df523b3ef8180a4600183015b818114611ea157808360007fddf252ad1be2c89b69c2b068fc378daa952ba7f163c4a11628f55a4df523b3ef600080a4600101611e69565b5081600003611ec257604051622e076360e81b815260040160405180910390fd5b60015550505050565b6060601e8210611f1d5760405162461bcd60e51b815260206004820152601360248201527f6f6666657374206f7574206f662072616e6765000000000000000000000000006044820152606401610b4a565b60408051600680825281830190925260009160208201818036833701905050905060005b600381101561085a5760408051808201909152601081526f181899199a1a9b1b9c1cb0b131b232b360811b6020820152600486611f7e878561258f565b60208110611f8e57611f8e61254a565b1a60f81b6001600160f81b031916901c60f81c60ff1681518110611fb457611fb461254a565b01602001516001600160f81b03191682611fcf8360026125a2565b81518110611fdf57611fdf61254a565b60200101906001600160f81b031916908160001a90535060408051808201909152601081526f181899199a1a9b1b9c1cb0b131b232b360811b602082015285612028868461258f565b602081106120385761203861254a565b825191901a600f1690811061204f5761204f61254a565b01602001516001600160f81b0319168261206a8360026125a2565b61207590600161258f565b815181106120855761208561254a565b60200101906001600160f81b031916908160001a905350806120a681612576565b915050611f41565b6000602082840312156120c057600080fd5b5035919050565b6001600160e01b03198116811461050357600080fd5b6000602082840312156120ef57600080fd5b813561143c816120c7565b60005b838110156121155781810151838201526020016120fd565b50506000910152565b600081518084526121368160208601602086016120fa565b601f01601f19169290920160200192915050565b60208152600061143c602083018461211e565b80356001600160a01b038116811461198157600080fd5b6000806040838503121561218757600080fd5b6121908361215d565b946020939093013593505050565b6000602082840312156121b057600080fd5b61143c8261215d565b600081518084526020808501945080840160005b838110156121e9578151875295820195908201906001016121cd565b509495945050505050565b60208152600061143c60208301846121b9565b60008060006060848603121561221c57600080fd5b6122258461215d565b92506122336020850161215d565b9150604084013590509250925092565b6000806040838503121561225657600080fd5b61225f8361215d565b91506020830135801515811461227457600080fd5b809150509250929050565b634e487b7160e01b600052604160045260246000fd5b604051601f8201601f1916810167ffffffffffffffff811182821017156122be576122be61227f565b604052919050565b600080600080608085870312156122dc57600080fd5b6122e58561215d565b935060206122f481870161215d565b935060408601359250606086013567ffffffffffffffff8082111561231857600080fd5b818801915088601f83011261232c57600080fd5b81358181111561233e5761233e61227f565b612350601f8201601f19168501612295565b9150808252898482850101111561236657600080fd5b808484018584013760008482840101525080935050505092959194509250565b600082601f83011261239757600080fd5b8135602067ffffffffffffffff8211156123b3576123b361227f565b8160051b6123c2828201612295565b92835284810182019282810190878511156123dc57600080fd5b83870192505b848310156123fb578235825291830191908301906123e2565b979650505050505050565b6000806040838503121561241957600080fd5b823567ffffffffffffffff81111561243057600080fd5b61243c85828601612386565b92505060208301356003811061227457600080fd5b60006020828403121561246357600080fd5b813567ffffffffffffffff81111561247a57600080fd5b61186e84828501612386565b602080825282518282018190526000919060409081850190868401855b828110156124d6578151805167ffffffffffffffff908116865290870151168685015292840192908501906001016124a3565b5091979650505050505050565b600080604083850312156124f657600080fd5b6124ff8361215d565b915061250d6020840161215d565b90509250929050565b600181811c9082168061252a57607f821691505b60208210810361092257634e487b7160e01b600052602260045260246000fd5b634e487b7160e01b600052603260045260246000fd5b634e487b7160e01b600052601160045260246000fd5b60006001820161258857612588612560565b5060010190565b8082018082111561068b5761068b612560565b60008160001904831182151516156125bc576125bc612560565b500290565b6040815260006125d460408301856121b9565b905067ffffffffffffffff831660208301529392505050565b67ffffffffffffffff81811683821601908082111561114a5761114a612560565b60006001600160a01b03808716835280861660208401525083604083015260806060830152612640608083018461211e565b9695505050505050565b60006020828403121561265c57600080fd5b815161143c816120c7565b600081516126798185602086016120fa565b9290920192915050565b7f7b226e616d65223a225363756465726961204e4654222c2022696d616765223a8152601160f91b6020820152600088516126c5816021850160208d016120fa565b7f222c2022746f6b656e4964223a22000000000000000000000000000000000000602191840191820152885161270281602f840160208d016120fa565b6b1116101131b7b637b9111d1160a11b602f9290910191820152875161272f81603b840160208c016120fa565b6b1116101139b832b2b2111d1160a11b603b9290910191820152865161275c816047840160208b016120fa565b6128d46128046127fe6127d56127cf6127a66127a06047888a01017f222c2022616363656c65726174696f6e223a2200000000000000000000000000815260130190565b8d612667565b7f222c202268616e646c696e67223a2200000000000000000000000000000000008152600f0190565b8a612667565b7f222c202272656c696162696c697479223a220000000000000000000000000000815260120190565b87612667565b7f222c20226465736372697074696f6e223a20225363756465726961206973206181527f2066756c6c79206f6e2d636861696e20726163696e67204e46542065636f737960208201527f7374656d207468617420616c6c6f7773206d696e74696e672c206d657461646160408201527f746120616e6420696d6167652067656e65726174696f6e2c20726163696e672060608201527f616e642062657474696e672c20616c6c2072756e6e696e67206f6e20506f6c79608082015265676f6e2e227d60d01b60a082015260a60190565b9b9a5050505050505050505050565b7f646174613a6170706c69636174696f6e2f6a736f6e3b6261736536342c00000081526000825161291b81601d8501602087016120fa565b91909101601d0192915050565b634e487b7160e01b600052602160045260246000fd5b634e487b7160e01b600052601260045260246000fd5b6000826129635761296361293e565b500690565b7f3c3f786d6c2076657273696f6e3d22312e302220656e636f64696e673d22555481526523169c111f9f60d11b60208201527f3c73766720786d6c6e733d22687474703a2f2f7777772e77332e6f72672f323060268201527f30302f7376672220786d6c6e733a786c696e6b3d22687474703a2f2f7777772e60468201527f77332e6f72672f313939392f786c696e6b222076657273696f6e3d22312e312260668201527f2076696577426f783d223020302034303020343030222070726573657276654160868201527f7370656374526174696f3d22784d6964594d6964206d656574223e000000000060a68201527f3c7374796c6520747970653d22746578742f637373223e3c215b43444154415b60c18201527f74657874207b20666f6e742d66616d696c793a206d6f6e6f73706163653b206660e18201527f6f6e742d73697a653a20323170783b7d202e6831207b666f6e742d73697a653a6101018201527f20343070783b20666f6e742d7765696768743a203630303b7d5d5d3e3c2f7374610121820152633cb6329f60e11b6101418201527f3c726563742077696474683d2234303022206865696768743d223430302220666101458201527f696c6c3d222366666666666622202f3e00000000000000000000000000000000610165820152600061143c612c12612bc3612bb36127fe61017587017f3c726563742077696474683d2234303022206865696768743d2234303022206681527f696c6c2d6f7061636974793d22302e36222066696c6c3d222300000000000000602082015260390190565b631110179f60e11b815260040190565b7f3c7465787420636c6173733d2268312220783d2235302220793d223730223e5381527f63756465726961204e46543c2f746578743e0000000000000000000000000000602082015260320190565b7f3c7465787420783d2237302220793d2232323022207374796c653d22666f6e7481527f2d73697a653a31333070783b223ef09f8f8eefb88ff09f92a83c2f746578743e602082015260400190565b7f3c7465787420783d2232302220793d2232383022207374796c653d22666f6e7481527f2d73697a653a313870783b223ef09f94a52073706565643a2000000000000000602082015260008551612cbf816039850160208a016120fa565b8083019050661e17ba32bc3a1f60c91b8060398301527f3c7465787420783d2232302220793d2233313022207374796c653d22666f6e7460408301527f2d73697a653a313870783b223ee29aa120616363656c65726174696f6e3a200060608301528651612d3481607f850160208b016120fa565b607f9201918201527f3c7465787420783d2232302220793d2233343022207374796c653d22666f6e7460868201527f2d73697a653a313870783b223ee29a99efb88f2068616e646c696e673a20000060a68201526123fb612e0f612da26127fe612db58260c487018b612667565b661e17ba32bc3a1f60c91b815260070190565b7f3c7465787420783d2232302220793d2233373022207374796c653d22666f6e7481527f2d73697a653a313870783b223ef09f9ba0efb88f2072656c696162696c69747960208201526101d160f51b604082015260420190565b651e17b9bb339f60d11b815260060190565b60008351612e338184602088016120fa565b835190830190612e478183602088016120fa565b01949350505050565b7f646174613a696d6167652f7376672b786d6c3b6261736536342c000000000000815260008251612e8881601a8501602087016120fa565b91909101601a0192915050565b600082612ea457612ea461293e565b500490565b8181038181111561068b5761068b61256056fe4142434445464748494a4b4c4d4e4f505152535455565758595a6162636465666768696a6b6c6d6e6f707172737475767778797a303132333435363738392b2fa2646970667358221220c8021ea467f6488356cade8f9b3e0da12d54cda04eba1c4fad34bba9e40bc00c64736f6c63430008100033",
  "devdoc": {
    "kind": "dev",
    "methods": {
      "approve(address,uint256)": {
        "details": "Gives permission to `to` to transfer `tokenId` token to another account. The approval is cleared when the token is transferred. Only a single account can be approved at a time, so approving the zero address clears previous approvals. Requirements: - The caller must own the token or be an approved operator. - `tokenId` must exist. Emits an {Approval} event."
      },
      "balanceOf(address)": {
        "details": "Returns the number of tokens in `owner`'s account."
      },
      "burn(uint256)": {
        "details": "This transaction will revert if the token is currently staked",
        "params": {
          "_tokenId": "the token to burn"
        }
      },
      "getApproved(uint256)": {
        "details": "Returns the account approved for `tokenId` token. Requirements: - `tokenId` must exist."
      },
      "getStakeStatus(uint256[])": {
        "params": {
          "_tokens": "array of token ids to get stake status for"
        }
      },
      "isApprovedForAll(address,address)": {
        "details": "Returns if the `operator` is allowed to manage all of the assets of `owner`. See {setApprovalForAll}."
      },
      "mint(uint256)": {
        "params": {
          "_quantity": "number of nfts to mint"
        }
      },
      "name()": {
        "details": "Returns the token collection name."
      },
      "owner()": {
        "details": "Returns the address of the current owner."
      },
      "ownerOf(uint256)": {
        "details": "Returns the owner of the `tokenId` token. Requirements: - `tokenId` must exist."
      },
      "renounceOwnership()": {
        "details": "Leaves the contract without owner. It will not be possible to call `onlyOwner` functions anymore. Can only be called by the current owner. NOTE: Renouncing ownership will leave the contract without an owner, thereby removing any functionality that is only available to the owner."
      },
      "safeTransferFrom(address,address,uint256)": {
        "details": "Equivalent to `safeTransferFrom(from, to, tokenId, '')`."
      },
      "safeTransferFrom(address,address,uint256,bytes)": {
        "details": "Safely transfers `tokenId` token from `from` to `to`. Requirements: - `from` cannot be the zero address. - `to` cannot be the zero address. - `tokenId` token must exist and be owned by `from`. - If the caller is not `from`, it must be approved to move this token by either {approve} or {setApprovalForAll}. - If `to` refers to a smart contract, it must implement {IERC721Receiver-onERC721Received}, which is called upon a safe transfer. Emits a {Transfer} event."
      },
      "secondaryMint(uint256)": {
        "params": {
          "_blueprintId": "the tokenId of the vehicle to use as a blueprint to create a second generation token"
        }
      },
      "setApprovalForAll(address,bool)": {
        "details": "Approve or remove `operator` as an operator for the caller. Operators can call {transferFrom} or {safeTransferFrom} for any token owned by the caller. Requirements: - The `operator` cannot be the caller. Emits an {ApprovalForAll} event."
      },
      "stake(uint256[],uint8)": {
        "params": {
          "_lockin": "Lockin period in seconds",
          "_tokens": "array of token ids to stake"
        }
      },
      "supportsInterface(bytes4)": {
        "details": "Returns true if this contract implements the interface defined by `interfaceId`. See the corresponding [EIP section](https://eips.ethereum.org/EIPS/eip-165#how-interfaces-are-identified) to learn more about how these ids are created. This function call must use less than 30000 gas."
      },
      "symbol()": {
        "details": "Returns the token collection symbol."
      },
      "tokenURI(uint256)": {
        "params": {
          "tokenId": "the tokenId of the nft to generate metadata for"
        }
      },
      "totalSupply()": {
        "details": "Returns the total number of tokens in existence. Burned tokens will reduce the count. To get the total number of tokens minted, please see {_totalMinted}."
      },
      "transferFrom(address,address,uint256)": {
        "details": "Transfers `tokenId` from `from` to `to`. Requirements: - `from` cannot be the zero address. - `to` cannot be the zero address. - `tokenId` token must be owned by `from`. - If the caller is not `from`, it must be approved to move this token by either {approve} or {setApprovalForAll}. Emits a {Transfer} event."
      },
      "transferOwnership(address)": {
        "details": "Transfers ownership of the contract to a new account (`newOwner`). Can only be called by the current owner."
      },
      "unstake(uint256[])": {
        "params": {
          "_tokens": "array of token ids to unstake"
        }
      },
      "withdraw(address)": {
        "params": {
          "_recipient": "Receiver of funds"
        }
      }
    },
    "version": 1
  },
  "userdoc": {
    "errors": {
      "ApprovalCallerNotOwnerNorApproved()": [
        {
          "notice": "The caller must own the token or be an approved operator."
        }
      ],
      "ApprovalQueryForNonexistentToken()": [
        {
          "notice": "The token does not exist."
        }
      ],
      "ApproveToCaller()": [
        {
          "notice": "The caller cannot approve to their own address."
        }
      ],
      "BalanceQueryForZeroAddress()": [
        {
          "notice": "Cannot query the balance for the zero address."
        }
      ],
      "CannotTransferStaked(uint256)": [
        {
          "notice": "Cannot execute action as this token is staked. This will be called if a transfer is made while the token is staked"
        }
      ],
      "IncorrectPaymentAmount()": [
        {
          "notice": "Incorrect payment amount"
        }
      ],
      "InvalidMintQuantity()": [
        {
          "notice": "making a function call with a zero quantity or quantity greater than the max per mint"
        }
      ],
      "MintERC2309QuantityExceedsLimit()": [
        {
          "notice": "The `quantity` minted with ERC2309 exceeds the safety limit."
        }
      ],
      "MintToZeroAddress()": [
        {
          "notice": "Cannot mint to the zero address."
        }
      ],
      "MintZeroQuantity()": [
        {
          "notice": "The quantity of tokens minted must be more than zero."
        }
      ],
      "NotTokenOwner()": [
        {
          "notice": "The caller is not the owner of the token"
        }
      ],
      "OwnerQueryForNonexistentToken()": [
        {
          "notice": "The token does not exist."
        }
      ],
      "OwnershipNotInitializedForExtraData()": [
        {
          "notice": "The `extraData` cannot be set on an unintialized ownership slot."
        }
      ],
      "SaleInactive()": [
        {
          "notice": "flag to enable sale has not yet been made active"
        }
      ],
      "SupplyWillBeExceeded()": [
        {
          "notice": "The supply will be exceeded if this transaction was completed"
        }
      ],
      "TokenAlreadyStaked(uint256)": [
        {
          "notice": "Token is already staked but expected to not be staked"
        }
      ],
      "TokenInLockin(uint256)": [
        {
          "notice": "The Token cannot be unstaked as it in still within its lockin period"
        }
      ],
      "TokenNotStaked(uint256)": [
        {
          "notice": "Token is not staked but is expected to be staked"
        }
      ],
      "TransferCallerNotOwnerNorApproved()": [
        {
          "notice": "The caller must own the token or be an approved operator."
        }
      ],
      "TransferFromIncorrectOwner()": [
        {
          "notice": "The token must be owned by `from`."
        }
      ],
      "TransferToNonERC721ReceiverImplementer()": [
        {
          "notice": "Cannot safely transfer to a contract that does not implement the ERC721Receiver interface."
        }
      ],
      "TransferToZeroAddress()": [
        {
          "notice": "Cannot transfer to the zero address."
        }
      ],
      "URIQueryForNonexistentToken()": [
        {
          "notice": "The token does not exist."
        }
      ]
    },
    "events": {
      "Stake(address,uint256[],uint256)": {
        "notice": "Emits when a user stakes their NFT tokens"
      },
      "Unstake(address,uint256[])": {
        "notice": "Emits when a user unstakes their NFT tokens"
      }
    },
    "kind": "user",
    "methods": {
      "burn(uint256)": {
        "notice": "Burn a token to the zero address"
      },
      "getStakeStatus(uint256[])": {
        "notice": "get the staked status for tokens"
      },
      "mint(uint256)": {
        "notice": "Genesis Mint - Mint quantity of nfts to sender"
      },
      "secondaryMint(uint256)": {
        "notice": "Create a second generation racing NFT using a genesis token as a blueprint. Cost $SCOOT token"
      },
      "stake(uint256[],uint8)": {
        "notice": "Stake Scuderia tokens in current users wallet, making them unable to withdraw but enabling more functionality"
      },
      "toggleSale()": {
        "notice": "Toggle whether nft minting is active"
      },
      "tokenURI(uint256)": {
        "notice": "Build the metadata URI for supplied token"
      },
      "unstake(uint256[])": {
        "notice": "Unstake the tokens locked in a users wallet, making them available for transfer"
      },
      "withdraw(address)": {
        "notice": "Transfer funds out of contract"
      }
    },
    "version": 1
  },
  "storageLayout": {
    "storage": [
      {
        "astId": 7,
        "contract": "contracts/implementations/Scuderia.sol:Scuderia",
        "label": "_owner",
        "offset": 0,
        "slot": "0",
        "type": "t_address"
      },
      {
        "astId": 2360,
        "contract": "contracts/implementations/Scuderia.sol:Scuderia",
        "label": "_currentIndex",
        "offset": 0,
        "slot": "1",
        "type": "t_uint256"
      },
      {
        "astId": 2362,
        "contract": "contracts/implementations/Scuderia.sol:Scuderia",
        "label": "_burnCounter",
        "offset": 0,
        "slot": "2",
        "type": "t_uint256"
      },
      {
        "astId": 2364,
        "contract": "contracts/implementations/Scuderia.sol:Scuderia",
        "label": "_name",
        "offset": 0,
        "slot": "3",
        "type": "t_string_storage"
      },
      {
        "astId": 2366,
        "contract": "contracts/implementations/Scuderia.sol:Scuderia",
        "label": "_symbol",
        "offset": 0,
        "slot": "4",
        "type": "t_string_storage"
      },
      {
        "astId": 2370,
        "contract": "contracts/implementations/Scuderia.sol:Scuderia",
        "label": "_packedOwnerships",
        "offset": 0,
        "slot": "5",
        "type": "t_mapping(t_uint256,t_uint256)"
      },
      {
        "astId": 2374,
        "contract": "contracts/implementations/Scuderia.sol:Scuderia",
        "label": "_packedAddressData",
        "offset": 0,
        "slot": "6",
        "type": "t_mapping(t_address,t_uint256)"
      },
      {
        "astId": 2379,
        "contract": "contracts/implementations/Scuderia.sol:Scuderia",
        "label": "_tokenApprovals",
        "offset": 0,
        "slot": "7",
        "type": "t_mapping(t_uint256,t_struct(TokenApprovalRef)2292_storage)"
      },
      {
        "astId": 2385,
        "contract": "contracts/implementations/Scuderia.sol:Scuderia",
        "label": "_operatorApprovals",
        "offset": 0,
        "slot": "8",
        "type": "t_mapping(t_address,t_mapping(t_address,t_bool))"
      },
      {
        "astId": 1110,
        "contract": "contracts/implementations/Scuderia.sol:Scuderia",
        "label": "stakes",
        "offset": 0,
        "slot": "9",
        "type": "t_mapping(t_uint256,t_struct(StakedToken)1860_storage)"
      },
      {
        "astId": 1518,
        "contract": "contracts/implementations/Scuderia.sol:Scuderia",
        "label": "genesisSupply",
        "offset": 0,
        "slot": "10",
        "type": "t_uint256"
      },
      {
        "astId": 1521,
        "contract": "contracts/implementations/Scuderia.sol:Scuderia",
        "label": "secondarySupply",
        "offset": 0,
        "slot": "11",
        "type": "t_uint256"
      },
      {
        "astId": 1524,
        "contract": "contracts/implementations/Scuderia.sol:Scuderia",
        "label": "MINT_PRICE",
        "offset": 0,
        "slot": "12",
        "type": "t_uint64"
      },
      {
        "astId": 1526,
        "contract": "contracts/implementations/Scuderia.sol:Scuderia",
        "label": "tokenBaseURI",
        "offset": 0,
        "slot": "13",
        "type": "t_string_storage"
      },
      {
        "astId": 1528,
        "contract": "contracts/implementations/Scuderia.sol:Scuderia",
        "label": "contractURI",
        "offset": 0,
        "slot": "14",
        "type": "t_string_storage"
      },
      {
        "astId": 1532,
        "contract": "contracts/implementations/Scuderia.sol:Scuderia",
        "label": "metadataSeed",
        "offset": 0,
        "slot": "15",
        "type": "t_mapping(t_uint256,t_bytes32)"
      },
      {
        "astId": 1535,
        "contract": "contracts/implementations/Scuderia.sol:Scuderia",
        "label": "saleActive",
        "offset": 0,
        "slot": "16",
        "type": "t_bool"
      }
    ],
    "types": {
      "t_address": {
        "encoding": "inplace",
        "label": "address",
        "numberOfBytes": "20"
      },
      "t_bool": {
        "encoding": "inplace",
        "label": "bool",
        "numberOfBytes": "1"
      },
      "t_bytes32": {
        "encoding": "inplace",
        "label": "bytes32",
        "numberOfBytes": "32"
      },
      "t_mapping(t_address,t_bool)": {
        "encoding": "mapping",
        "key": "t_address",
        "label": "mapping(address => bool)",
        "numberOfBytes": "32",
        "value": "t_bool"
      },
      "t_mapping(t_address,t_mapping(t_address,t_bool))": {
        "encoding": "mapping",
        "key": "t_address",
        "label": "mapping(address => mapping(address => bool))",
        "numberOfBytes": "32",
        "value": "t_mapping(t_address,t_bool)"
      },
      "t_mapping(t_address,t_uint256)": {
        "encoding": "mapping",
        "key": "t_address",
        "label": "mapping(address => uint256)",
        "numberOfBytes": "32",
        "value": "t_uint256"
      },
      "t_mapping(t_uint256,t_bytes32)": {
        "encoding": "mapping",
        "key": "t_uint256",
        "label": "mapping(uint256 => bytes32)",
        "numberOfBytes": "32",
        "value": "t_bytes32"
      },
      "t_mapping(t_uint256,t_struct(StakedToken)1860_storage)": {
        "encoding": "mapping",
        "key": "t_uint256",
        "label": "mapping(uint256 => struct IStakable.StakedToken)",
        "numberOfBytes": "32",
        "value": "t_struct(StakedToken)1860_storage"
      },
      "t_mapping(t_uint256,t_struct(TokenApprovalRef)2292_storage)": {
        "encoding": "mapping",
        "key": "t_uint256",
        "label": "mapping(uint256 => struct ERC721A.TokenApprovalRef)",
        "numberOfBytes": "32",
        "value": "t_struct(TokenApprovalRef)2292_storage"
      },
      "t_mapping(t_uint256,t_uint256)": {
        "encoding": "mapping",
        "key": "t_uint256",
        "label": "mapping(uint256 => uint256)",
        "numberOfBytes": "32",
        "value": "t_uint256"
      },
      "t_string_storage": {
        "encoding": "bytes",
        "label": "string",
        "numberOfBytes": "32"
      },
      "t_struct(StakedToken)1860_storage": {
        "encoding": "inplace",
        "label": "struct IStakable.StakedToken",
        "members": [
          {
            "astId": 1857,
            "contract": "contracts/implementations/Scuderia.sol:Scuderia",
            "label": "timeStaked",
            "offset": 0,
            "slot": "0",
            "type": "t_uint64"
          },
          {
            "astId": 1859,
            "contract": "contracts/implementations/Scuderia.sol:Scuderia",
            "label": "lockinPeriod",
            "offset": 8,
            "slot": "0",
            "type": "t_uint64"
          }
        ],
        "numberOfBytes": "32"
      },
      "t_struct(TokenApprovalRef)2292_storage": {
        "encoding": "inplace",
        "label": "struct ERC721A.TokenApprovalRef",
        "members": [
          {
            "astId": 2291,
            "contract": "contracts/implementations/Scuderia.sol:Scuderia",
            "label": "value",
            "offset": 0,
            "slot": "0",
            "type": "t_address"
          }
        ],
        "numberOfBytes": "32"
      },
      "t_uint256": {
        "encoding": "inplace",
        "label": "uint256",
        "numberOfBytes": "32"
      },
      "t_uint64": {
        "encoding": "inplace",
        "label": "uint64",
        "numberOfBytes": "8"
      }
    }
  }
}