{
  "address": "0x5FbDB2315678afecb367f032d93F642f64180aa3",
  "abi": [
    {
      "inputs": [
        {
          "internalType": "address",
          "name": "_ownerAddress",
          "type": "address"
        }
      ],
      "stateMutability": "nonpayable",
      "type": "constructor"
    },
    {
      "inputs": [],
      "name": "ApprovalCallerNotOwnerNorApproved",
      "type": "error"
    },
    {
      "inputs": [],
      "name": "ApprovalQueryForNonexistentToken",
      "type": "error"
    },
    {
      "inputs": [],
      "name": "ApproveToCaller",
      "type": "error"
    },
    {
      "inputs": [],
      "name": "BalanceQueryForZeroAddress",
      "type": "error"
    },
    {
      "inputs": [
        {
          "internalType": "uint256",
          "name": "_tokenId",
          "type": "uint256"
        }
      ],
      "name": "CannotTransferStaked",
      "type": "error"
    },
    {
      "inputs": [],
      "name": "IncorrectPaymentAmount",
      "type": "error"
    },
    {
      "inputs": [],
      "name": "InvalidMintQuantity",
      "type": "error"
    },
    {
      "inputs": [],
      "name": "MintERC2309QuantityExceedsLimit",
      "type": "error"
    },
    {
      "inputs": [],
      "name": "MintToZeroAddress",
      "type": "error"
    },
    {
      "inputs": [],
      "name": "MintZeroQuantity",
      "type": "error"
    },
    {
      "inputs": [],
      "name": "NotTokenOwner",
      "type": "error"
    },
    {
      "inputs": [],
      "name": "OwnerQueryForNonexistentToken",
      "type": "error"
    },
    {
      "inputs": [],
      "name": "OwnershipNotInitializedForExtraData",
      "type": "error"
    },
    {
      "inputs": [],
      "name": "SaleInactive",
      "type": "error"
    },
    {
      "inputs": [],
      "name": "SupplyWillBeExceeded",
      "type": "error"
    },
    {
      "inputs": [
        {
          "internalType": "uint256",
          "name": "_tokenId",
          "type": "uint256"
        }
      ],
      "name": "TokenAlreadyStaked",
      "type": "error"
    },
    {
      "inputs": [
        {
          "internalType": "uint256",
          "name": "_tokenId",
          "type": "uint256"
        }
      ],
      "name": "TokenInLockin",
      "type": "error"
    },
    {
      "inputs": [
        {
          "internalType": "uint256",
          "name": "_tokenId",
          "type": "uint256"
        }
      ],
      "name": "TokenNotStaked",
      "type": "error"
    },
    {
      "inputs": [],
      "name": "TransferCallerNotOwnerNorApproved",
      "type": "error"
    },
    {
      "inputs": [],
      "name": "TransferFromIncorrectOwner",
      "type": "error"
    },
    {
      "inputs": [],
      "name": "TransferToNonERC721ReceiverImplementer",
      "type": "error"
    },
    {
      "inputs": [],
      "name": "TransferToZeroAddress",
      "type": "error"
    },
    {
      "inputs": [],
      "name": "URIQueryForNonexistentToken",
      "type": "error"
    },
    {
      "anonymous": false,
      "inputs": [
        {
          "indexed": true,
          "internalType": "address",
          "name": "owner",
          "type": "address"
        },
        {
          "indexed": true,
          "internalType": "address",
          "name": "approved",
          "type": "address"
        },
        {
          "indexed": true,
          "internalType": "uint256",
          "name": "tokenId",
          "type": "uint256"
        }
      ],
      "name": "Approval",
      "type": "event"
    },
    {
      "anonymous": false,
      "inputs": [
        {
          "indexed": true,
          "internalType": "address",
          "name": "owner",
          "type": "address"
        },
        {
          "indexed": true,
          "internalType": "address",
          "name": "operator",
          "type": "address"
        },
        {
          "indexed": false,
          "internalType": "bool",
          "name": "approved",
          "type": "bool"
        }
      ],
      "name": "ApprovalForAll",
      "type": "event"
    },
    {
      "anonymous": false,
      "inputs": [
        {
          "indexed": true,
          "internalType": "uint256",
          "name": "fromTokenId",
          "type": "uint256"
        },
        {
          "indexed": false,
          "internalType": "uint256",
          "name": "toTokenId",
          "type": "uint256"
        },
        {
          "indexed": true,
          "internalType": "address",
          "name": "from",
          "type": "address"
        },
        {
          "indexed": true,
          "internalType": "address",
          "name": "to",
          "type": "address"
        }
      ],
      "name": "ConsecutiveTransfer",
      "type": "event"
    },
    {
      "anonymous": false,
      "inputs": [
        {
          "indexed": true,
          "internalType": "address",
          "name": "previousOwner",
          "type": "address"
        },
        {
          "indexed": true,
          "internalType": "address",
          "name": "newOwner",
          "type": "address"
        }
      ],
      "name": "OwnershipTransferred",
      "type": "event"
    },
    {
      "anonymous": false,
      "inputs": [
        {
          "indexed": true,
          "internalType": "address",
          "name": "_owner",
          "type": "address"
        },
        {
          "indexed": false,
          "internalType": "uint256[]",
          "name": "_tokens",
          "type": "uint256[]"
        },
        {
          "indexed": false,
          "internalType": "uint256",
          "name": "_lockinPeriod",
          "type": "uint256"
        }
      ],
      "name": "Stake",
      "type": "event"
    },
    {
      "anonymous": false,
      "inputs": [
        {
          "indexed": true,
          "internalType": "address",
          "name": "from",
          "type": "address"
        },
        {
          "indexed": true,
          "internalType": "address",
          "name": "to",
          "type": "address"
        },
        {
          "indexed": true,
          "internalType": "uint256",
          "name": "tokenId",
          "type": "uint256"
        }
      ],
      "name": "Transfer",
      "type": "event"
    },
    {
      "anonymous": false,
      "inputs": [
        {
          "indexed": true,
          "internalType": "address",
          "name": "_owner",
          "type": "address"
        },
        {
          "indexed": false,
          "internalType": "uint256[]",
          "name": "_tokens",
          "type": "uint256[]"
        }
      ],
      "name": "Unstake",
      "type": "event"
    },
    {
      "inputs": [
        {
          "internalType": "address",
          "name": "to",
          "type": "address"
        },
        {
          "internalType": "uint256",
          "name": "tokenId",
          "type": "uint256"
        }
      ],
      "name": "approve",
      "outputs": [],
      "stateMutability": "nonpayable",
      "type": "function"
    },
    {
      "inputs": [
        {
          "internalType": "address",
          "name": "owner",
          "type": "address"
        }
      ],
      "name": "balanceOf",
      "outputs": [
        {
          "internalType": "uint256",
          "name": "",
          "type": "uint256"
        }
      ],
      "stateMutability": "view",
      "type": "function"
    },
    {
      "inputs": [
        {
          "internalType": "uint256",
          "name": "_tokenId",
          "type": "uint256"
        }
      ],
      "name": "burn",
      "outputs": [],
      "stateMutability": "nonpayable",
      "type": "function"
    },
    {
      "inputs": [],
      "name": "genesisSupply",
      "outputs": [
        {
          "internalType": "uint256",
          "name": "",
          "type": "uint256"
        }
      ],
      "stateMutability": "view",
      "type": "function"
    },
    {
      "inputs": [
        {
          "internalType": "uint256",
          "name": "tokenId",
          "type": "uint256"
        }
      ],
      "name": "getApproved",
      "outputs": [
        {
          "internalType": "address",
          "name": "",
          "type": "address"
        }
      ],
      "stateMutability": "view",
      "type": "function"
    },
    {
      "inputs": [
        {
          "internalType": "address",
          "name": "owner",
          "type": "address"
        },
        {
          "internalType": "address",
          "name": "operator",
          "type": "address"
        }
      ],
      "name": "isApprovedForAll",
      "outputs": [
        {
          "internalType": "bool",
          "name": "",
          "type": "bool"
        }
      ],
      "stateMutability": "view",
      "type": "function"
    },
    {
      "inputs": [
        {
          "internalType": "uint256",
          "name": "",
          "type": "uint256"
        }
      ],
      "name": "metadataSeed",
      "outputs": [
        {
          "internalType": "bytes32",
          "name": "",
          "type": "bytes32"
        }
      ],
      "stateMutability": "view",
      "type": "function"
    },
    {
      "inputs": [
        {
          "internalType": "uint256",
          "name": "_quantity",
          "type": "uint256"
        }
      ],
      "name": "mint",
      "outputs": [],
      "stateMutability": "payable",
      "type": "function"
    },
    {
      "inputs": [],
      "name": "name",
      "outputs": [
        {
          "internalType": "string",
          "name": "",
          "type": "string"
        }
      ],
      "stateMutability": "view",
      "type": "function"
    },
    {
      "inputs": [],
      "name": "owner",
      "outputs": [
        {
          "internalType": "address",
          "name": "",
          "type": "address"
        }
      ],
      "stateMutability": "view",
      "type": "function"
    },
    {
      "inputs": [
        {
          "internalType": "uint256",
          "name": "tokenId",
          "type": "uint256"
        }
      ],
      "name": "ownerOf",
      "outputs": [
        {
          "internalType": "address",
          "name": "",
          "type": "address"
        }
      ],
      "stateMutability": "view",
      "type": "function"
    },
    {
      "inputs": [],
      "name": "renounceOwnership",
      "outputs": [],
      "stateMutability": "nonpayable",
      "type": "function"
    },
    {
      "inputs": [
        {
          "internalType": "address",
          "name": "from",
          "type": "address"
        },
        {
          "internalType": "address",
          "name": "to",
          "type": "address"
        },
        {
          "internalType": "uint256",
          "name": "tokenId",
          "type": "uint256"
        }
      ],
      "name": "safeTransferFrom",
      "outputs": [],
      "stateMutability": "nonpayable",
      "type": "function"
    },
    {
      "inputs": [
        {
          "internalType": "address",
          "name": "from",
          "type": "address"
        },
        {
          "internalType": "address",
          "name": "to",
          "type": "address"
        },
        {
          "internalType": "uint256",
          "name": "tokenId",
          "type": "uint256"
        },
        {
          "internalType": "bytes",
          "name": "_data",
          "type": "bytes"
        }
      ],
      "name": "safeTransferFrom",
      "outputs": [],
      "stateMutability": "nonpayable",
      "type": "function"
    },
    {
      "inputs": [],
      "name": "saleActive",
      "outputs": [
        {
          "internalType": "bool",
          "name": "",
          "type": "bool"
        }
      ],
      "stateMutability": "view",
      "type": "function"
    },
    {
      "inputs": [
        {
          "internalType": "uint256",
          "name": "_blueprintId",
          "type": "uint256"
        }
      ],
      "name": "secondaryMint",
      "outputs": [],
      "stateMutability": "nonpayable",
      "type": "function"
    },
    {
      "inputs": [],
      "name": "secondarySupply",
      "outputs": [
        {
          "internalType": "uint256",
          "name": "",
          "type": "uint256"
        }
      ],
      "stateMutability": "view",
      "type": "function"
    },
    {
      "inputs": [
        {
          "internalType": "address",
          "name": "operator",
          "type": "address"
        },
        {
          "internalType": "bool",
          "name": "approved",
          "type": "bool"
        }
      ],
      "name": "setApprovalForAll",
      "outputs": [],
      "stateMutability": "nonpayable",
      "type": "function"
    },
    {
      "inputs": [
        {
          "internalType": "uint256[]",
          "name": "_tokens",
          "type": "uint256[]"
        },
        {
          "internalType": "enum IStakable.LockinPeriod",
          "name": "_lockin",
          "type": "uint8"
        }
      ],
      "name": "stake",
      "outputs": [],
      "stateMutability": "nonpayable",
      "type": "function"
    },
    {
      "inputs": [
        {
          "internalType": "uint256",
          "name": "",
          "type": "uint256"
        }
      ],
      "name": "stakes",
      "outputs": [
        {
          "internalType": "uint64",
          "name": "timeStaked",
          "type": "uint64"
        },
        {
          "internalType": "uint64",
          "name": "lockinPeriod",
          "type": "uint64"
        }
      ],
      "stateMutability": "view",
      "type": "function"
    },
    {
      "inputs": [
        {
          "internalType": "bytes4",
          "name": "interfaceId",
          "type": "bytes4"
        }
      ],
      "name": "supportsInterface",
      "outputs": [
        {
          "internalType": "bool",
          "name": "",
          "type": "bool"
        }
      ],
      "stateMutability": "view",
      "type": "function"
    },
    {
      "inputs": [],
      "name": "symbol",
      "outputs": [
        {
          "internalType": "string",
          "name": "",
          "type": "string"
        }
      ],
      "stateMutability": "view",
      "type": "function"
    },
    {
      "inputs": [],
      "name": "toggleSale",
      "outputs": [],
      "stateMutability": "nonpayable",
      "type": "function"
    },
    {
      "inputs": [
        {
          "internalType": "uint256",
          "name": "tokenId",
          "type": "uint256"
        }
      ],
      "name": "tokenURI",
      "outputs": [
        {
          "internalType": "string",
          "name": "",
          "type": "string"
        }
      ],
      "stateMutability": "view",
      "type": "function"
    },
    {
      "inputs": [],
      "name": "totalSupply",
      "outputs": [
        {
          "internalType": "uint256",
          "name": "",
          "type": "uint256"
        }
      ],
      "stateMutability": "view",
      "type": "function"
    },
    {
      "inputs": [
        {
          "internalType": "address",
          "name": "from",
          "type": "address"
        },
        {
          "internalType": "address",
          "name": "to",
          "type": "address"
        },
        {
          "internalType": "uint256",
          "name": "tokenId",
          "type": "uint256"
        }
      ],
      "name": "transferFrom",
      "outputs": [],
      "stateMutability": "nonpayable",
      "type": "function"
    },
    {
      "inputs": [
        {
          "internalType": "address",
          "name": "newOwner",
          "type": "address"
        }
      ],
      "name": "transferOwnership",
      "outputs": [],
      "stateMutability": "nonpayable",
      "type": "function"
    },
    {
      "inputs": [
        {
          "internalType": "uint256[]",
          "name": "_tokens",
          "type": "uint256[]"
        }
      ],
      "name": "unstake",
      "outputs": [],
      "stateMutability": "nonpayable",
      "type": "function"
    },
    {
      "inputs": [
        {
          "internalType": "address",
          "name": "_walletOwner",
          "type": "address"
        }
      ],
      "name": "walletOf",
      "outputs": [
        {
          "internalType": "uint256[]",
          "name": "result",
          "type": "uint256[]"
        }
      ],
      "stateMutability": "view",
      "type": "function"
    },
    {
      "inputs": [
        {
          "internalType": "address",
          "name": "_recipient",
          "type": "address"
        }
      ],
      "name": "withdraw",
      "outputs": [],
      "stateMutability": "nonpayable",
      "type": "function"
    }
  ],
  "transactionHash": "0xcece0701b8dc36298839db13cdf1bfd2f1b3bca8400fb6ce49ab79a64f90a42b",
  "args": [
    "0xf39Fd6e51aad88F6F4ce6aB8827279cffFb92266"
  ],
  "numDeployments": 1,
  "solcInputHash": "95eed80abac678a1abff553970f5914c",
  "bytecode": "0x60806040526000600a819055600b55600c80546001600160401b03191667016345785d8a00001790556010805460ff191690553480156200003f57600080fd5b50604051620031f4380380620031f4833981016040819052620000629162000291565b60405180604001604052806008815260200167536375646572696160c01b8152506040518060400160405280600381526020016214d0d160ea1b8152508181620000bb620000b56200016060201b60201c565b62000164565b6003620000c9838262000368565b506004620000d8828262000368565b5050600180555050506001600160a01b0381166200013d5760405162461bcd60e51b815260206004820152601b60248201527f6f776e657220616464726573732063616e6e6f7420626520307830000000000060448201526064015b60405180910390fd5b6001600160a01b038116331462000159576200015981620001b4565b5062000434565b3390565b600080546001600160a01b038381166001600160a01b0319831681178455604051919092169283917f8be0079c531659141344cd1fd0a4f28419497f9722a3daafe3b4186f6b6457e09190a35050565b620001be62000233565b6001600160a01b038116620002255760405162461bcd60e51b815260206004820152602660248201527f4f776e61626c653a206e6577206f776e657220697320746865207a65726f206160448201526564647265737360d01b606482015260840162000134565b620002308162000164565b50565b6000546001600160a01b031633146200028f5760405162461bcd60e51b815260206004820181905260248201527f4f776e61626c653a2063616c6c6572206973206e6f7420746865206f776e6572604482015260640162000134565b565b600060208284031215620002a457600080fd5b81516001600160a01b0381168114620002bc57600080fd5b9392505050565b634e487b7160e01b600052604160045260246000fd5b600181811c90821680620002ee57607f821691505b6020821081036200030f57634e487b7160e01b600052602260045260246000fd5b50919050565b601f8211156200036357600081815260208120601f850160051c810160208610156200033e5750805b601f850160051c820191505b818110156200035f578281556001016200034a565b5050505b505050565b81516001600160401b03811115620003845762000384620002c3565b6200039c81620003958454620002d9565b8462000315565b602080601f831160018114620003d45760008415620003bb5750858301515b600019600386901b1c1916600185901b1785556200035f565b600085815260208120601f198616915b828110156200040557888601518255948401946001909101908401620003e4565b5085821015620004245787850151600019600388901b60f8161c191681555b5050505050600190811b01905550565b612db080620004446000396000f3fe6080604052600436106101cc5760003560e01c8063715018a6116100f7578063b88d4fde11610095578063d5a44f8611610064578063d5a44f861461051b578063e449f3411461057c578063e985e9c51461059c578063f2fde38b146105bc57600080fd5b8063b88d4fde1461049d578063c87b56dd146104bd578063ce7cea36146104dd578063d1ca41a9146104fb57600080fd5b806395d89b41116100d157806395d89b411461043f578063a0712d6814610454578063a22cb46514610467578063b20a8d481461048757600080fd5b8063715018a6146103f75780637d8966e41461040c5780638da5cb5b1461042157600080fd5b806323b872dd1161016f57806351cff8d91161013e57806351cff8d91461037d5780636352211e1461039d57806368428a1b146103bd57806370a08231146103d757600080fd5b806323b872dd1461030757806342842e0e1461032757806342966c68146103475780634bbf179b1461036757600080fd5b8063081812fc116101ab578063081812fc14610263578063095ea7b31461029b57806318160ddd146102bd5780631982640c146102da57600080fd5b8062ad1e3b146101d157806301ffc9a71461021157806306fdde0314610241575b600080fd5b3480156101dd57600080fd5b506101fe6101ec366004611f8d565b600f6020526000908152604090205481565b6040519081526020015b60405180910390f35b34801561021d57600080fd5b5061023161022c366004611fbc565b6105dc565b6040519015158152602001610208565b34801561024d57600080fd5b5061025661062e565b6040516102089190612029565b34801561026f57600080fd5b5061028361027e366004611f8d565b6106c0565b6040516001600160a01b039091168152602001610208565b3480156102a757600080fd5b506102bb6102b6366004612053565b610704565b005b3480156102c957600080fd5b5060025460015403600019016101fe565b3480156102e657600080fd5b506102fa6102f536600461207d565b6107a4565b60405161020891906120d3565b34801561031357600080fd5b506102bb6103223660046120e6565b61089a565b34801561033357600080fd5b506102bb6103423660046120e6565b610a37565b34801561035357600080fd5b506102bb610362366004611f8d565b610a57565b34801561037357600080fd5b506101fe600a5481565b34801561038957600080fd5b506102bb61039836600461207d565b610ac5565b3480156103a957600080fd5b506102836103b8366004611f8d565b610b06565b3480156103c957600080fd5b506010546102319060ff1681565b3480156103e357600080fd5b506101fe6103f236600461207d565b610b11565b34801561040357600080fd5b506102bb610b5f565b34801561041857600080fd5b506102bb610b73565b34801561042d57600080fd5b506000546001600160a01b0316610283565b34801561044b57600080fd5b50610256610b8f565b6102bb610462366004611f8d565b610b9e565b34801561047357600080fd5b506102bb610482366004612122565b610cbc565b34801561049357600080fd5b506101fe600b5481565b3480156104a957600080fd5b506102bb6104b83660046121a4565b610d51565b3480156104c957600080fd5b506102566104d8366004611f8d565b610d9b565b3480156104e957600080fd5b506102bb6104f8366004611f8d565b50565b34801561050757600080fd5b506102bb6105163660046122e2565b610ddd565b34801561052757600080fd5b5061055c610536366004611f8d565b6009602052600090815260409020546001600160401b0380821691600160401b90041682565b604080516001600160401b03938416815292909116602083015201610208565b34801561058857600080fd5b506102bb61059736600461232c565b610fa3565b3480156105a857600080fd5b506102316105b7366004612360565b611183565b3480156105c857600080fd5b506102bb6105d736600461207d565b6111b1565b60006301ffc9a760e01b6001600160e01b03198316148061060d57506380ac58cd60e01b6001600160e01b03198316145b806106285750635b5e139f60e01b6001600160e01b03198316145b92915050565b60606003805461063d90612393565b80601f016020809104026020016040519081016040528092919081815260200182805461066990612393565b80156106b65780601f1061068b576101008083540402835291602001916106b6565b820191906000526020600020905b81548152906001019060200180831161069957829003601f168201915b5050505050905090565b60006106cb82611227565b6106e8576040516333d1c03960e21b815260040160405180910390fd5b506000908152600760205260409020546001600160a01b031690565b600061070f82610b06565b9050336001600160a01b038216146107485761072b8133611183565b610748576040516367d9dca160e11b815260040160405180910390fd5b60008281526007602052604080822080546001600160a01b0319166001600160a01b0387811691821790925591518593918516917f8c5be1e5ebec7d5bd14f71427d1e84f3dd0314c0f7b2291e5b200ac8c7c3b92591a4505050565b606060006107b183610b11565b9050806000036107d55760408051600080825260208201909252905b509392505050565b806001600160401b038111156107ed576107ed61215e565b604051908082528060200260200182016040528015610816578160200160208202803683370190505b509150600060015b6001546000190181116108915781831461089157846001600160a01b031661084582610b06565b6001600160a01b03160361087f5780848381518110610866576108666123c7565b60209081029190910101528161087b816123f3565b9250505b80610889816123f3565b91505061081e565b50505b50919050565b60006108a58261125c565b9050836001600160a01b0316816001600160a01b0316146108d85760405162a1148160e81b815260040160405180910390fd5b600082815260076020526040902080546109048187335b6001600160a01b039081169116811491141790565b61092f576109128633611183565b61092f57604051632ce44b5f60e11b815260040160405180910390fd5b6001600160a01b03851661095657604051633a954ecd60e21b815260040160405180910390fd5b61096386868660016112d2565b801561096e57600082555b6001600160a01b038681166000908152600660205260408082208054600019019055918716808252919020805460010190554260a01b17600160e11b17600085815260056020526040812091909155600160e11b84169003610a00576001840160008181526005602052604081205490036109fe5760015481146109fe5760008181526005602052604090208490555b505b83856001600160a01b0316876001600160a01b0316600080516020612d5b83398151915260405160405180910390a4505050505050565b610a5283838360405180602001604052806000815250610d51565b505050565b6000818152600960205260409020546001600160401b031615610a9557604051635034a20760e01b8152600481018290526024015b60405180910390fd5b610aba60405180604001604052806004815260200163313ab93760e11b815250611389565b6104f88160016113cc565b610acd611513565b6040516001600160a01b038216904780156108fc02916000818181858888f19350505050158015610b02573d6000803e3d6000fd5b5050565b60006106288261125c565b60006001600160a01b038216610b3a576040516323d3ad8160e21b815260040160405180910390fd5b506001600160a01b03166000908152600660205260409020546001600160401b031690565b610b67611513565b610b71600061156d565b565b610b7b611513565b6010805460ff19811660ff90911615179055565b60606004805461063d90612393565b60105460ff16610bc157604051630fe219dd60e21b815260040160405180910390fd5b61138881600a54610bd2919061240c565b1115610bf15760405163b03ef06960e01b815260040160405180910390fd5b801580610bfe5750600a81115b15610c1c5760405163011674e560e71b815260040160405180910390fd5b600c54610c339082906001600160401b031661241f565b3414610c5257604051636992e1ff60e01b815260040160405180910390fd5b60015b818111610c9957600081600a54610c6c919061240c565b9050610c77816115bd565b6000918252600f60205260409091205580610c91816123f3565b915050610c55565b5080600a6000828254610cac919061240c565b909155506104f89050338261161b565b336001600160a01b03831603610ce55760405163b06307db60e01b815260040160405180910390fd5b3360008181526008602090815260408083206001600160a01b03871680855290835292819020805460ff191686151590811790915590519081529192917f17307eab39ab6107e8899845ad3d59bd9653f200f220920489ca2b5937696c31910160405180910390a35050565b610d5c84848461089a565b6001600160a01b0383163b15610d9557610d7884848484611635565b610d95576040516368d2bf6b60e11b815260040160405180910390fd5b50505050565b6060610da682611227565b610dc357604051630a14c4b560e41b815260040160405180910390fd5b6000828152600f6020526040902054610628908390611721565b6000610de8826117ce565b905060005b8351811015610f5a57336001600160a01b0316610e22858381518110610e1557610e156123c7565b6020026020010151610b06565b6001600160a01b031614610e49576040516359dc379f60e01b815260040160405180910390fd5b60096000858381518110610e5f57610e5f6123c7565b6020908102919091018101518252810191909152604001600020546001600160401b031615610ebe57838181518110610e9a57610e9a6123c7565b60200260200101516040516328f0990960e11b8152600401610a8c91815260200190565b6040518060400160405280426001600160401b03168152602001836001600160401b031681525060096000868481518110610efb57610efb6123c7565b6020908102919091018101518252818101929092526040016000208251815493909201516001600160401b03908116600160401b026001600160801b031990941692169190911791909117905580610f52816123f3565b915050610ded565b50336001600160a01b03167ffb8aecb8b23012599b556fb33ec46f8109af4272df44fda6106fd79601b9cb7e8483604051610f9692919061243e565b60405180910390a2505050565b60005b815181101561113e57600060096000848481518110610fc757610fc76123c7565b60209081029190910181015182528181019290925260409081016000208151808301909252546001600160401b038082168352600160401b90910416918101919091528351909150339061102790859085908110610e1557610e156123c7565b6001600160a01b03161461104e576040516359dc379f60e01b815260040160405180910390fd5b80516001600160401b031660000361109657828281518110611072576110726123c7565b602002602001015160405163220d012160e11b8152600401610a8c91815260200190565b6020810151815142916110a891612469565b6001600160401b031611156110ed578282815181106110c9576110c96123c7565b60200260200101516040516360a612c760e01b8152600401610a8c91815260200190565b60096000848481518110611103576111036123c7565b602090810291909101810151825281019190915260400160002080546001600160801b03191690555080611136816123f3565b915050610fa6565b50336001600160a01b03167f8537ffc096ba30690173694a1630e9cdad3b912b48980d0127edbcfe80076b618260405161117891906120d3565b60405180910390a250565b6001600160a01b03918216600090815260086020908152604080832093909416825291909152205460ff1690565b6111b9611513565b6001600160a01b03811661121e5760405162461bcd60e51b815260206004820152602660248201527f4f776e61626c653a206e6577206f776e657220697320746865207a65726f206160448201526564647265737360d01b6064820152608401610a8c565b6104f88161156d565b60008160011115801561123b575060015482105b8015610628575050600090815260056020526040902054600160e01b161590565b600081806001116112b9576001548110156112b95760008181526005602052604081205490600160e01b821690036112b7575b806000036112b057506000190160008181526005602052604090205461128f565b9392505050565b505b604051636f96cda160e11b815260040160405180910390fd5b6113126040518060400160405280601a81526020017f6265666f7265207472616e7366657220686f6f6b2025732025730000000000008152508383611831565b60005b81811015611382576009600061132b838661240c565b81526020810191909152604001600020546001600160401b03161561137057611354818461240c565b604051635034a20760e01b8152600401610a8c91815260200190565b8061137a816123f3565b915050611315565b5050505050565b6104f88160405160240161139d9190612029565b60408051601f198184030181529190526020810180516001600160e01b031663104c13eb60e21b179052611874565b60006113d78361125c565b9050806000806113f586600090815260076020526040902080549091565b9150915084156114355761140a8184336108ef565b611435576114188333611183565b61143557604051632ce44b5f60e11b815260040160405180910390fd5b6114438360008860016112d2565b801561144e57600082555b6001600160a01b038316600081815260066020526040902080546fffffffffffffffffffffffffffffffff0190554260a01b17600360e01b17600087815260056020526040812091909155600160e11b851690036114dc576001860160008181526005602052604081205490036114da5760015481146114da5760008181526005602052604090208590555b505b60405186906000906001600160a01b03861690600080516020612d5b833981519152908390a4505060028054600101905550505050565b6000546001600160a01b03163314610b715760405162461bcd60e51b815260206004820181905260248201527f4f776e61626c653a2063616c6c6572206973206e6f7420746865206f776e65726044820152606401610a8c565b600080546001600160a01b038381166001600160a01b0319831681178455604051919092169283917f8be0079c531659141344cd1fd0a4f28419497f9722a3daafe3b4186f6b6457e09190a35050565b6000424433846040516020016115fe9493929190938452602084019290925260601b6bffffffffffffffffffffffff19166040830152605482015260740190565b604051602081830303815290604052805190602001209050919050565b610b02828260405180602001604052806000815250611895565b604051630a85bd0160e11b81526000906001600160a01b0385169063150b7a029061166a903390899088908890600401612490565b6020604051808303816000875af19250505080156116a5575060408051601f3d908101601f191682019092526116a2918101906124cd565b60015b611703573d8080156116d3576040519150601f19603f3d011682016040523d82523d6000602084013e6116d8565b606091505b5080516000036116fb576040516368d2bf6b60e11b815260040160405180910390fd5b805181602001fd5b6001600160e01b031916630a85bd0160e11b1490505b949350505050565b6060600061172e836118fb565b90506117a661173c826119c7565b61174586611a7b565b8351602085015161175590611a7b565b6117628660400151611a7b565b61176f8760600151611a7b565b61177c8860800151611a7b565b6040516020016117929796959493929190612506565b604051602081830303815290604052611b7b565b6040516020016117b69190612734565b60405160208183030381529060405291505092915050565b6000808260028111156117e3576117e3612779565b036117ee575062278d005b600182600281111561180257611802612779565b0361180d5750624f1a005b600282600281111561182157611821612779565b0361182c57506276a7005b919050565b610a528383836040516024016118499392919061278f565b60408051601f198184030181529190526020810180516001600160e01b031663ca47c4eb60e01b1790525b80516a636f6e736f6c652e6c6f67602083016000808483855afa5050505050565b61189f8383611ccd565b6001600160a01b0383163b15610a52576001548281035b6118c96000868380600101945086611635565b6118e6576040516368d2bf6b60e11b815260040160405180910390fd5b8181106118b657816001541461138257600080fd5b61192d6040518060a0016040528060608152602001600081526020016000815260200160008152602001600081525090565b6040518060a00160405280611943846000611db4565b81526020016119576046600686901c6127ca565b61196290601f61240c565b81526020016119766046600c86901c6127ca565b61198190601f61240c565b81526020016119956046601286901c6127ca565b6119a090601f61240c565b81526020016119b46046601886901c6127ca565b6119bf90601f61240c565b905292915050565b6060611a5582600001516040516020016119e191906127de565b6040516020818303038152906040526119fd8460200151611a7b565b611a0a8560400151611a7b565b611a178660600151611a7b565b611a248760800151611a7b565b604051602001611a379493929190612abf565b60408051601f19818403018152908290526117929291602001612c7f565b604051602001611a659190612cae565b6040516020818303038152906040529050919050565b606081600003611aa25750506040805180820190915260018152600360fc1b602082015290565b8160005b8115611acc5780611ab6816123f3565b9150611ac59050600a83612cf3565b9150611aa6565b6000816001600160401b03811115611ae657611ae661215e565b6040519080825280601f01601f191660200182016040528015611b10576020820181803683370190505b5090505b841561171957611b25600183612d07565b9150611b32600a866127ca565b611b3d90603061240c565b60f81b818381518110611b5257611b526123c7565b60200101906001600160f81b031916908160001a905350611b74600a86612cf3565b9450611b14565b60608151600003611b9a57505060408051602081019091526000815290565b6000604051806060016040528060408152602001612d1b6040913990506000600384516002611bc9919061240c565b611bd39190612cf3565b611bde90600461241f565b6001600160401b03811115611bf557611bf561215e565b6040519080825280601f01601f191660200182016040528015611c1f576020820181803683370190505b509050600182016020820185865187015b80821015611c8b576003820191508151603f8160121c168501518453600184019350603f81600c1c168501518453600184019350603f8160061c168501518453600184019350603f8116850151845350600183019250611c30565b5050600386510660018114611ca75760028114611cba57611cc2565b603d6001830353603d6002830353611cc2565b603d60018303535b509195945050505050565b6001546000829003611cf25760405163b562e8dd60e01b815260040160405180910390fd5b611cff60008483856112d2565b6001600160a01b03831660008181526006602090815260408083208054680100000000000000018802019055848352600590915281206001851460e11b4260a01b17831790558284019083908390600080516020612d5b8339815191528180a4600183015b818114611d8a5780836000600080516020612d5b833981519152600080a4600101611d64565b5081600003611dab57604051622e076360e81b815260040160405180910390fd5b60015550505050565b6060601e8210611dfc5760405162461bcd60e51b81526020600482015260136024820152726f6666657374206f7574206f662072616e676560681b6044820152606401610a8c565b60408051600680825281830190925260009160208201818036833701905050905060005b60038110156107cd5760408051808201909152601081526f181899199a1a9b1b9c1cb0b131b232b360811b6020820152600486611e5d878561240c565b60208110611e6d57611e6d6123c7565b1a60f81b6001600160f81b031916901c60f81c60ff1681518110611e9357611e936123c7565b01602001516001600160f81b03191682611eae83600261241f565b81518110611ebe57611ebe6123c7565b60200101906001600160f81b031916908160001a90535060408051808201909152601081526f181899199a1a9b1b9c1cb0b131b232b360811b602082015285611f07868461240c565b60208110611f1757611f176123c7565b825191901a600f16908110611f2e57611f2e6123c7565b01602001516001600160f81b03191682611f4983600261241f565b611f5490600161240c565b81518110611f6457611f646123c7565b60200101906001600160f81b031916908160001a90535080611f85816123f3565b915050611e20565b600060208284031215611f9f57600080fd5b5035919050565b6001600160e01b0319811681146104f857600080fd5b600060208284031215611fce57600080fd5b81356112b081611fa6565b60005b83811015611ff4578181015183820152602001611fdc565b50506000910152565b60008151808452612015816020860160208601611fd9565b601f01601f19169290920160200192915050565b6020815260006112b06020830184611ffd565b80356001600160a01b038116811461182c57600080fd5b6000806040838503121561206657600080fd5b61206f8361203c565b946020939093013593505050565b60006020828403121561208f57600080fd5b6112b08261203c565b600081518084526020808501945080840160005b838110156120c8578151875295820195908201906001016120ac565b509495945050505050565b6020815260006112b06020830184612098565b6000806000606084860312156120fb57600080fd5b6121048461203c565b92506121126020850161203c565b9150604084013590509250925092565b6000806040838503121561213557600080fd5b61213e8361203c565b91506020830135801515811461215357600080fd5b809150509250929050565b634e487b7160e01b600052604160045260246000fd5b604051601f8201601f191681016001600160401b038111828210171561219c5761219c61215e565b604052919050565b600080600080608085870312156121ba57600080fd5b6121c38561203c565b935060206121d281870161203c565b93506040860135925060608601356001600160401b03808211156121f557600080fd5b818801915088601f83011261220957600080fd5b81358181111561221b5761221b61215e565b61222d601f8201601f19168501612174565b9150808252898482850101111561224357600080fd5b808484018584013760008482840101525080935050505092959194509250565b600082601f83011261227457600080fd5b813560206001600160401b0382111561228f5761228f61215e565b8160051b61229e828201612174565b92835284810182019282810190878511156122b857600080fd5b83870192505b848310156122d7578235825291830191908301906122be565b979650505050505050565b600080604083850312156122f557600080fd5b82356001600160401b0381111561230b57600080fd5b61231785828601612263565b92505060208301356003811061215357600080fd5b60006020828403121561233e57600080fd5b81356001600160401b0381111561235457600080fd5b61171984828501612263565b6000806040838503121561237357600080fd5b61237c8361203c565b915061238a6020840161203c565b90509250929050565b600181811c908216806123a757607f821691505b60208210810361089457634e487b7160e01b600052602260045260246000fd5b634e487b7160e01b600052603260045260246000fd5b634e487b7160e01b600052601160045260246000fd5b600060018201612405576124056123dd565b5060010190565b80820180821115610628576106286123dd565b6000816000190483118215151615612439576124396123dd565b500290565b6040815260006124516040830185612098565b90506001600160401b03831660208301529392505050565b6001600160401b03818116838216019080821115612489576124896123dd565b5092915050565b6001600160a01b03858116825284166020820152604081018390526080606082018190526000906124c390830184611ffd565b9695505050505050565b6000602082840312156124df57600080fd5b81516112b081611fa6565b600081516124fc818560208601611fd9565b9290920192915050565b7f7b226e616d65223a225363756465726961204e4654222c2022696d616765223a8152601160f91b602082015260008851612548816021850160208d01611fd9565b6d111610113a37b5b2b724b2111d1160911b602191840191820152885161257681602f840160208d01611fd9565b6b1116101131b7b637b9111d1160a11b602f929091019182015287516125a381603b840160208c01611fd9565b6b1116101139b832b2b2111d1160a11b603b929091019182015286516125d0816047840160208b01611fd9565b61272561265561264f61263161262b61261061260a6047888a0101721116101130b1b1b2b632b930ba34b7b7111d1160691b815260130190565b8d6124ea565b6e111610113430b7323634b733911d1160891b8152600f0190565b8a6124ea565b71111610113932b634b0b134b634ba3c911d1160711b815260120190565b876124ea565b7f222c20226465736372697074696f6e223a20225363756465726961206973206181527f2066756c6c79206f6e2d636861696e20726163696e67204e46542065636f737960208201527f7374656d207468617420616c6c6f7773206d696e74696e672c206d657461646160408201527f746120616e6420696d6167652067656e65726174696f6e2c20726163696e672060608201527f616e642062657474696e672c20616c6c2072756e6e696e67206f6e20506f6c79608082015265676f6e2e227d60d01b60a082015260a60190565b9b9a5050505050505050505050565b7f646174613a6170706c69636174696f6e2f6a736f6e3b6261736536342c00000081526000825161276c81601d850160208701611fd9565b91909101601d0192915050565b634e487b7160e01b600052602160045260246000fd5b6060815260006127a26060830186611ffd565b60208301949094525060400152919050565b634e487b7160e01b600052601260045260246000fd5b6000826127d9576127d96127b4565b500690565b7f3c3f786d6c2076657273696f6e3d22312e302220656e636f64696e673d22555481526523169c111f9f60d11b60208201527f3c73766720786d6c6e733d22687474703a2f2f7777772e77332e6f72672f323060268201527f30302f7376672220786d6c6e733a786c696e6b3d22687474703a2f2f7777772e60468201527f77332e6f72672f313939392f786c696e6b222076657273696f6e3d22312e312260668201527f2076696577426f783d223020302034303020343030222070726573657276654160868201527f7370656374526174696f3d22784d6964594d6964206d656574223e000000000060a68201527f3c7374796c6520747970653d22746578742f637373223e3c215b43444154415b60c18201527f74657874207b20666f6e742d66616d696c793a206d6f6e6f73706163653b206660e18201527f6f6e742d73697a653a20323170783b7d202e6831207b666f6e742d73697a653a6101018201527f20343070783b20666f6e742d7765696768743a203630303b7d5d5d3e3c2f7374610121820152633cb6329f60e11b6101418201527f3c726563742077696474683d2234303022206865696768743d223430302220666101458201526f34b6361e9111b333333333331110179f60811b61016582015260006112b0612a70612a2c612a1c61264f61017587017f3c726563742077696474683d2234303022206865696768743d2234303022206681527f696c6c2d6f7061636974793d22302e36222066696c6c3d222300000000000000602082015260390190565b631110179f60e11b815260040190565b7f3c7465787420636c6173733d2268312220783d2235302220793d223730223e5381527131bab232b934b09027232a1e17ba32bc3a1f60711b602082015260320190565b7f3c7465787420783d2237302220793d2232323022207374796c653d22666f6e7481527f2d73697a653a31333070783b223ef09f8f8eefb88ff09f92a83c2f746578743e602082015260400190565b7f3c7465787420783d2232302220793d2232383022207374796c653d22666f6e7481527f2d73697a653a313870783b223ef09f94a52073706565643a2000000000000000602082015260008551612b1d816039850160208a01611fd9565b8083019050661e17ba32bc3a1f60c91b8060398301527f3c7465787420783d2232302220793d2233313022207374796c653d22666f6e7460408301527f2d73697a653a313870783b223ee29aa120616363656c65726174696f6e3a200060608301528651612b9281607f850160208b01611fd9565b607f9201918201527f3c7465787420783d2232302220793d2233343022207374796c653d22666f6e7460868201527f2d73697a653a313870783b223ee29a99efb88f2068616e646c696e673a20000060a68201526122d7612c6d612c0061264f612c138260c487018b6124ea565b661e17ba32bc3a1f60c91b815260070190565b7f3c7465787420783d2232302220793d2233373022207374796c653d22666f6e7481527f2d73697a653a313870783b223ef09f9ba0efb88f2072656c696162696c69747960208201526101d160f51b604082015260420190565b651e17b9bb339f60d11b815260060190565b60008351612c91818460208801611fd9565b835190830190612ca5818360208801611fd9565b01949350505050565b7f646174613a696d6167652f7376672b786d6c3b6261736536342c000000000000815260008251612ce681601a850160208701611fd9565b91909101601a0192915050565b600082612d0257612d026127b4565b500490565b81810381811115610628576106286123dd56fe4142434445464748494a4b4c4d4e4f505152535455565758595a6162636465666768696a6b6c6d6e6f707172737475767778797a303132333435363738392b2fddf252ad1be2c89b69c2b068fc378daa952ba7f163c4a11628f55a4df523b3efa2646970667358221220da2956ecf1cdbe6d8c77bf54fdd12ea8042ae4aa07200f536a035fcef6e8f6c364736f6c63430008100033",
  "devdoc": {
    "kind": "dev",
    "methods": {
      "approve(address,uint256)": {
        "details": "Gives permission to `to` to transfer `tokenId` token to another account. The approval is cleared when the token is transferred. Only a single account can be approved at a time, so approving the zero address clears previous approvals. Requirements: - The caller must own the token or be an approved operator. - `tokenId` must exist. Emits an {Approval} event."
      },
      "balanceOf(address)": {
        "details": "Returns the number of tokens in `owner`'s account."
      },
      "getApproved(uint256)": {
        "details": "Returns the account approved for `tokenId` token. Requirements: - `tokenId` must exist."
      },
      "isApprovedForAll(address,address)": {
        "details": "Returns if the `operator` is allowed to manage all of the assets of `owner`. See {setApprovalForAll}."
      },
      "mint(uint256)": {
        "params": {
          "_quantity": "number of nfts to mint"
        }
      },
      "name()": {
        "details": "Returns the token collection name."
      },
      "owner()": {
        "details": "Returns the address of the current owner."
      },
      "ownerOf(uint256)": {
        "details": "Returns the owner of the `tokenId` token. Requirements: - `tokenId` must exist."
      },
      "renounceOwnership()": {
        "details": "Leaves the contract without owner. It will not be possible to call `onlyOwner` functions anymore. Can only be called by the current owner. NOTE: Renouncing ownership will leave the contract without an owner, thereby removing any functionality that is only available to the owner."
      },
      "safeTransferFrom(address,address,uint256)": {
        "details": "Equivalent to `safeTransferFrom(from, to, tokenId, '')`."
      },
      "safeTransferFrom(address,address,uint256,bytes)": {
        "details": "Safely transfers `tokenId` token from `from` to `to`. Requirements: - `from` cannot be the zero address. - `to` cannot be the zero address. - `tokenId` token must exist and be owned by `from`. - If the caller is not `from`, it must be approved to move this token by either {approve} or {setApprovalForAll}. - If `to` refers to a smart contract, it must implement {IERC721Receiver-onERC721Received}, which is called upon a safe transfer. Emits a {Transfer} event."
      },
      "secondaryMint(uint256)": {
        "params": {
          "_blueprintId": "the tokenId of the vehicle to use as a blueprint to create a second generation token"
        }
      },
      "setApprovalForAll(address,bool)": {
        "details": "Approve or remove `operator` as an operator for the caller. Operators can call {transferFrom} or {safeTransferFrom} for any token owned by the caller. Requirements: - The `operator` cannot be the caller. Emits an {ApprovalForAll} event."
      },
      "stake(uint256[],uint8)": {
        "params": {
          "_lockin": "Lockin period in seconds",
          "_tokens": "array of token ids to stake"
        }
      },
      "supportsInterface(bytes4)": {
        "details": "Returns true if this contract implements the interface defined by `interfaceId`. See the corresponding [EIP section](https://eips.ethereum.org/EIPS/eip-165#how-interfaces-are-identified) to learn more about how these ids are created. This function call must use less than 30000 gas."
      },
      "symbol()": {
        "details": "Returns the token collection symbol."
      },
      "tokenURI(uint256)": {
        "params": {
          "tokenId": "the tokenId of the nft to generate metadata for"
        }
      },
      "totalSupply()": {
        "details": "Returns the total number of tokens in existence. Burned tokens will reduce the count. To get the total number of tokens minted, please see {_totalMinted}."
      },
      "transferFrom(address,address,uint256)": {
        "details": "Transfers `tokenId` from `from` to `to`. Requirements: - `from` cannot be the zero address. - `to` cannot be the zero address. - `tokenId` token must be owned by `from`. - If the caller is not `from`, it must be approved to move this token by either {approve} or {setApprovalForAll}. Emits a {Transfer} event."
      },
      "transferOwnership(address)": {
        "details": "Transfers ownership of the contract to a new account (`newOwner`). Can only be called by the current owner."
      },
      "unstake(uint256[])": {
        "params": {
          "_tokens": "array of token ids to unstake"
        }
      },
      "withdraw(address)": {
        "params": {
          "_recipient": "Receiver of funds"
        }
      }
    },
    "version": 1
  },
  "userdoc": {
    "errors": {
      "ApprovalCallerNotOwnerNorApproved()": [
        {
          "notice": "The caller must own the token or be an approved operator."
        }
      ],
      "ApprovalQueryForNonexistentToken()": [
        {
          "notice": "The token does not exist."
        }
      ],
      "ApproveToCaller()": [
        {
          "notice": "The caller cannot approve to their own address."
        }
      ],
      "BalanceQueryForZeroAddress()": [
        {
          "notice": "Cannot query the balance for the zero address."
        }
      ],
      "CannotTransferStaked(uint256)": [
        {
          "notice": "Cannot execute action as this token is staked. This will be called if a transfer is made while the token is staked"
        }
      ],
      "IncorrectPaymentAmount()": [
        {
          "notice": "Incorrect payment amount"
        }
      ],
      "InvalidMintQuantity()": [
        {
          "notice": "making a function call with a zero quantity or quantity greater than the max per mint"
        }
      ],
      "MintERC2309QuantityExceedsLimit()": [
        {
          "notice": "The `quantity` minted with ERC2309 exceeds the safety limit."
        }
      ],
      "MintToZeroAddress()": [
        {
          "notice": "Cannot mint to the zero address."
        }
      ],
      "MintZeroQuantity()": [
        {
          "notice": "The quantity of tokens minted must be more than zero."
        }
      ],
      "NotTokenOwner()": [
        {
          "notice": "The caller is not the owner of the token"
        }
      ],
      "OwnerQueryForNonexistentToken()": [
        {
          "notice": "The token does not exist."
        }
      ],
      "OwnershipNotInitializedForExtraData()": [
        {
          "notice": "The `extraData` cannot be set on an unintialized ownership slot."
        }
      ],
      "SaleInactive()": [
        {
          "notice": "flag to enable sale has not yet been made active"
        }
      ],
      "SupplyWillBeExceeded()": [
        {
          "notice": "The supply will be exceeded if this transaction was completed"
        }
      ],
      "TokenAlreadyStaked(uint256)": [
        {
          "notice": "Token is already staked but expected to not be staked"
        }
      ],
      "TokenInLockin(uint256)": [
        {
          "notice": "The Token cannot be unstaked as it in still within its lockin period"
        }
      ],
      "TokenNotStaked(uint256)": [
        {
          "notice": "Token is not staked but is expected to be staked"
        }
      ],
      "TransferCallerNotOwnerNorApproved()": [
        {
          "notice": "The caller must own the token or be an approved operator."
        }
      ],
      "TransferFromIncorrectOwner()": [
        {
          "notice": "The token must be owned by `from`."
        }
      ],
      "TransferToNonERC721ReceiverImplementer()": [
        {
          "notice": "Cannot safely transfer to a contract that does not implement the ERC721Receiver interface."
        }
      ],
      "TransferToZeroAddress()": [
        {
          "notice": "Cannot transfer to the zero address."
        }
      ],
      "URIQueryForNonexistentToken()": [
        {
          "notice": "The token does not exist."
        }
      ]
    },
    "events": {
      "Stake(address,uint256[],uint256)": {
        "notice": "Emits when a user stakes their NFT tokens"
      },
      "Unstake(address,uint256[])": {
        "notice": "Emits when a user unstakes their NFT tokens"
      }
    },
    "kind": "user",
    "methods": {
      "mint(uint256)": {
        "notice": "Genesis Mint - Mint quantity of nfts to sender"
      },
      "secondaryMint(uint256)": {
        "notice": "Create a second generation racing NFT using a genesis token as a blueprint. Cost $SCOOT token"
      },
      "stake(uint256[],uint8)": {
        "notice": "Stake Scuderia tokens in current users wallet, making them unable to withdraw but enabling more functionality"
      },
      "toggleSale()": {
        "notice": "Toggle whether nft minting is active"
      },
      "tokenURI(uint256)": {
        "notice": "Build the metadata URI for supplied token"
      },
      "unstake(uint256[])": {
        "notice": "Unstake the tokens locked in a users wallet, making them available for transfer"
      },
      "withdraw(address)": {
        "notice": "Transfer funds out of contract"
      }
    },
    "version": 1
  },
  "storageLayout": {
    "storage": [
      {
        "astId": 7,
        "contract": "contracts/implementations/Scuderia.sol:Scuderia",
        "label": "_owner",
        "offset": 0,
        "slot": "0",
        "type": "t_address"
      },
      {
        "astId": 2299,
        "contract": "contracts/implementations/Scuderia.sol:Scuderia",
        "label": "_currentIndex",
        "offset": 0,
        "slot": "1",
        "type": "t_uint256"
      },
      {
        "astId": 2301,
        "contract": "contracts/implementations/Scuderia.sol:Scuderia",
        "label": "_burnCounter",
        "offset": 0,
        "slot": "2",
        "type": "t_uint256"
      },
      {
        "astId": 2303,
        "contract": "contracts/implementations/Scuderia.sol:Scuderia",
        "label": "_name",
        "offset": 0,
        "slot": "3",
        "type": "t_string_storage"
      },
      {
        "astId": 2305,
        "contract": "contracts/implementations/Scuderia.sol:Scuderia",
        "label": "_symbol",
        "offset": 0,
        "slot": "4",
        "type": "t_string_storage"
      },
      {
        "astId": 2309,
        "contract": "contracts/implementations/Scuderia.sol:Scuderia",
        "label": "_packedOwnerships",
        "offset": 0,
        "slot": "5",
        "type": "t_mapping(t_uint256,t_uint256)"
      },
      {
        "astId": 2313,
        "contract": "contracts/implementations/Scuderia.sol:Scuderia",
        "label": "_packedAddressData",
        "offset": 0,
        "slot": "6",
        "type": "t_mapping(t_address,t_uint256)"
      },
      {
        "astId": 2318,
        "contract": "contracts/implementations/Scuderia.sol:Scuderia",
        "label": "_tokenApprovals",
        "offset": 0,
        "slot": "7",
        "type": "t_mapping(t_uint256,t_struct(TokenApprovalRef)2231_storage)"
      },
      {
        "astId": 2324,
        "contract": "contracts/implementations/Scuderia.sol:Scuderia",
        "label": "_operatorApprovals",
        "offset": 0,
        "slot": "8",
        "type": "t_mapping(t_address,t_mapping(t_address,t_bool))"
      },
      {
        "astId": 1110,
        "contract": "contracts/implementations/Scuderia.sol:Scuderia",
        "label": "stakes",
        "offset": 0,
        "slot": "9",
        "type": "t_mapping(t_uint256,t_struct(StakedToken)1816_storage)"
      },
      {
        "astId": 1474,
        "contract": "contracts/implementations/Scuderia.sol:Scuderia",
        "label": "genesisSupply",
        "offset": 0,
        "slot": "10",
        "type": "t_uint256"
      },
      {
        "astId": 1477,
        "contract": "contracts/implementations/Scuderia.sol:Scuderia",
        "label": "secondarySupply",
        "offset": 0,
        "slot": "11",
        "type": "t_uint256"
      },
      {
        "astId": 1480,
        "contract": "contracts/implementations/Scuderia.sol:Scuderia",
        "label": "MINT_PRICE",
        "offset": 0,
        "slot": "12",
        "type": "t_uint64"
      },
      {
        "astId": 1482,
        "contract": "contracts/implementations/Scuderia.sol:Scuderia",
        "label": "tokenBaseURI",
        "offset": 0,
        "slot": "13",
        "type": "t_string_storage"
      },
      {
        "astId": 1484,
        "contract": "contracts/implementations/Scuderia.sol:Scuderia",
        "label": "contractURI",
        "offset": 0,
        "slot": "14",
        "type": "t_string_storage"
      },
      {
        "astId": 1488,
        "contract": "contracts/implementations/Scuderia.sol:Scuderia",
        "label": "metadataSeed",
        "offset": 0,
        "slot": "15",
        "type": "t_mapping(t_uint256,t_bytes32)"
      },
      {
        "astId": 1491,
        "contract": "contracts/implementations/Scuderia.sol:Scuderia",
        "label": "saleActive",
        "offset": 0,
        "slot": "16",
        "type": "t_bool"
      }
    ],
    "types": {
      "t_address": {
        "encoding": "inplace",
        "label": "address",
        "numberOfBytes": "20"
      },
      "t_bool": {
        "encoding": "inplace",
        "label": "bool",
        "numberOfBytes": "1"
      },
      "t_bytes32": {
        "encoding": "inplace",
        "label": "bytes32",
        "numberOfBytes": "32"
      },
      "t_mapping(t_address,t_bool)": {
        "encoding": "mapping",
        "key": "t_address",
        "label": "mapping(address => bool)",
        "numberOfBytes": "32",
        "value": "t_bool"
      },
      "t_mapping(t_address,t_mapping(t_address,t_bool))": {
        "encoding": "mapping",
        "key": "t_address",
        "label": "mapping(address => mapping(address => bool))",
        "numberOfBytes": "32",
        "value": "t_mapping(t_address,t_bool)"
      },
      "t_mapping(t_address,t_uint256)": {
        "encoding": "mapping",
        "key": "t_address",
        "label": "mapping(address => uint256)",
        "numberOfBytes": "32",
        "value": "t_uint256"
      },
      "t_mapping(t_uint256,t_bytes32)": {
        "encoding": "mapping",
        "key": "t_uint256",
        "label": "mapping(uint256 => bytes32)",
        "numberOfBytes": "32",
        "value": "t_bytes32"
      },
      "t_mapping(t_uint256,t_struct(StakedToken)1816_storage)": {
        "encoding": "mapping",
        "key": "t_uint256",
        "label": "mapping(uint256 => struct IStakable.StakedToken)",
        "numberOfBytes": "32",
        "value": "t_struct(StakedToken)1816_storage"
      },
      "t_mapping(t_uint256,t_struct(TokenApprovalRef)2231_storage)": {
        "encoding": "mapping",
        "key": "t_uint256",
        "label": "mapping(uint256 => struct ERC721A.TokenApprovalRef)",
        "numberOfBytes": "32",
        "value": "t_struct(TokenApprovalRef)2231_storage"
      },
      "t_mapping(t_uint256,t_uint256)": {
        "encoding": "mapping",
        "key": "t_uint256",
        "label": "mapping(uint256 => uint256)",
        "numberOfBytes": "32",
        "value": "t_uint256"
      },
      "t_string_storage": {
        "encoding": "bytes",
        "label": "string",
        "numberOfBytes": "32"
      },
      "t_struct(StakedToken)1816_storage": {
        "encoding": "inplace",
        "label": "struct IStakable.StakedToken",
        "members": [
          {
            "astId": 1813,
            "contract": "contracts/implementations/Scuderia.sol:Scuderia",
            "label": "timeStaked",
            "offset": 0,
            "slot": "0",
            "type": "t_uint64"
          },
          {
            "astId": 1815,
            "contract": "contracts/implementations/Scuderia.sol:Scuderia",
            "label": "lockinPeriod",
            "offset": 8,
            "slot": "0",
            "type": "t_uint64"
          }
        ],
        "numberOfBytes": "32"
      },
      "t_struct(TokenApprovalRef)2231_storage": {
        "encoding": "inplace",
        "label": "struct ERC721A.TokenApprovalRef",
        "members": [
          {
            "astId": 2230,
            "contract": "contracts/implementations/Scuderia.sol:Scuderia",
            "label": "value",
            "offset": 0,
            "slot": "0",
            "type": "t_address"
          }
        ],
        "numberOfBytes": "32"
      },
      "t_uint256": {
        "encoding": "inplace",
        "label": "uint256",
        "numberOfBytes": "32"
      },
      "t_uint64": {
        "encoding": "inplace",
        "label": "uint64",
        "numberOfBytes": "8"
      }
    }
  }
}